{
    "_format": "hh-sol-artifact-1",
    "contractName": "Light",
    "sourceName": "contracts/Light.sol",
    "abi": [
        {
            "inputs": [],
            "stateMutability": "nonpayable",
            "type": "constructor"
        },
        {
            "anonymous": false,
            "inputs": [
                {
                    "indexed": true,
                    "internalType": "address",
                    "name": "owner",
                    "type": "address"
                },
                {
                    "indexed": true,
                    "internalType": "address",
                    "name": "approved",
                    "type": "address"
                },
                {
                    "indexed": true,
                    "internalType": "uint256",
                    "name": "tokenId",
                    "type": "uint256"
                }
            ],
            "name": "Approval",
            "type": "event"
        },
        {
            "anonymous": false,
            "inputs": [
                {
                    "indexed": true,
                    "internalType": "address",
                    "name": "owner",
                    "type": "address"
                },
                {
                    "indexed": true,
                    "internalType": "address",
                    "name": "operator",
                    "type": "address"
                },
                {
                    "indexed": false,
                    "internalType": "bool",
                    "name": "approved",
                    "type": "bool"
                }
            ],
            "name": "ApprovalForAll",
            "type": "event"
        },
        {
            "anonymous": false,
            "inputs": [
                {
                    "indexed": false,
                    "internalType": "int256",
                    "name": "x",
                    "type": "int256"
                },
                {
                    "indexed": false,
                    "internalType": "int256",
                    "name": "y",
                    "type": "int256"
                },
                {
                    "indexed": false,
                    "internalType": "int256",
                    "name": "z",
                    "type": "int256"
                },
                {
                    "indexed": false,
                    "internalType": "uint256",
                    "name": "color",
                    "type": "uint256"
                },
                {
                    "indexed": false,
                    "internalType": "address",
                    "name": "minter",
                    "type": "address"
                }
            ],
            "name": "Minted",
            "type": "event"
        },
        {
            "anonymous": false,
            "inputs": [
                {
                    "indexed": true,
                    "internalType": "address",
                    "name": "from",
                    "type": "address"
                },
                {
                    "indexed": true,
                    "internalType": "address",
                    "name": "to",
                    "type": "address"
                },
                {
                    "indexed": true,
                    "internalType": "uint256",
                    "name": "tokenId",
                    "type": "uint256"
                }
            ],
            "name": "Transfer",
            "type": "event"
        },
        {
            "anonymous": false,
            "inputs": [
                {
                    "indexed": false,
                    "internalType": "int256",
                    "name": "x",
                    "type": "int256"
                },
                {
                    "indexed": false,
                    "internalType": "int256",
                    "name": "y",
                    "type": "int256"
                },
                {
                    "indexed": false,
                    "internalType": "int256",
                    "name": "z",
                    "type": "int256"
                },
                {
                    "indexed": false,
                    "internalType": "uint256",
                    "name": "color",
                    "type": "uint256"
                },
                {
                    "indexed": false,
                    "internalType": "address",
                    "name": "updater",
                    "type": "address"
                }
            ],
            "name": "UpdatedColor",
            "type": "event"
        },
        {
            "inputs": [
                {
                    "internalType": "address",
                    "name": "to",
                    "type": "address"
                },
                {
                    "internalType": "uint256",
                    "name": "tokenId",
                    "type": "uint256"
                }
            ],
            "name": "approve",
            "outputs": [],
            "stateMutability": "nonpayable",
            "type": "function"
        },
        {
            "inputs": [
                {
                    "internalType": "address",
                    "name": "owner",
                    "type": "address"
                }
            ],
            "name": "balanceOf",
            "outputs": [
                {
                    "internalType": "uint256",
                    "name": "",
                    "type": "uint256"
                }
            ],
            "stateMutability": "view",
            "type": "function"
        },
        {
            "inputs": [
                {
                    "internalType": "uint256",
                    "name": "tokenId",
                    "type": "uint256"
                }
            ],
            "name": "getApproved",
            "outputs": [
                {
                    "internalType": "address",
                    "name": "",
                    "type": "address"
                }
            ],
            "stateMutability": "view",
            "type": "function"
        },
        {
            "inputs": [
                {
                    "internalType": "int256",
                    "name": "_x",
                    "type": "int256"
                },
                {
                    "internalType": "int256",
                    "name": "_y",
                    "type": "int256"
                },
                {
                    "internalType": "int256",
                    "name": "_z",
                    "type": "int256"
                }
            ],
            "name": "getLightInfo",
            "outputs": [
                {
                    "internalType": "address",
                    "name": "owner",
                    "type": "address"
                },
                {
                    "internalType": "uint256",
                    "name": "color",
                    "type": "uint256"
                }
            ],
            "stateMutability": "view",
            "type": "function"
        },
        {
            "inputs": [
                {
                    "internalType": "address",
                    "name": "owner",
                    "type": "address"
                },
                {
                    "internalType": "address",
                    "name": "operator",
                    "type": "address"
                }
            ],
            "name": "isApprovedForAll",
            "outputs": [
                {
                    "internalType": "bool",
                    "name": "",
                    "type": "bool"
                }
            ],
            "stateMutability": "view",
            "type": "function"
        },
        {
            "inputs": [
                {
                    "internalType": "int256",
                    "name": "",
                    "type": "int256"
                },
                {
                    "internalType": "int256",
                    "name": "",
                    "type": "int256"
                },
                {
                    "internalType": "int256",
                    "name": "",
                    "type": "int256"
                }
            ],
            "name": "light",
            "outputs": [
                {
                    "internalType": "bool",
                    "name": "minted",
                    "type": "bool"
                },
                {
                    "internalType": "address",
                    "name": "owner",
                    "type": "address"
                },
                {
                    "internalType": "uint256",
                    "name": "color",
                    "type": "uint256"
                }
            ],
            "stateMutability": "view",
            "type": "function"
        },
        {
            "inputs": [
                {
                    "internalType": "int256",
                    "name": "_x",
                    "type": "int256"
                },
                {
                    "internalType": "int256",
                    "name": "_y",
                    "type": "int256"
                },
                {
                    "internalType": "int256",
                    "name": "_z",
                    "type": "int256"
                },
                {
                    "internalType": "uint256",
                    "name": "_color",
                    "type": "uint256"
                },
                {
                    "internalType": "address",
                    "name": "_owner",
                    "type": "address"
                }
            ],
            "name": "mint",
            "outputs": [],
            "stateMutability": "nonpayable",
            "type": "function"
        },
        {
            "inputs": [],
            "name": "name",
            "outputs": [
                {
                    "internalType": "string",
                    "name": "",
                    "type": "string"
                }
            ],
            "stateMutability": "view",
            "type": "function"
        },
        {
            "inputs": [
                {
                    "internalType": "uint256",
                    "name": "tokenId",
                    "type": "uint256"
                }
            ],
            "name": "ownerOf",
            "outputs": [
                {
                    "internalType": "address",
                    "name": "",
                    "type": "address"
                }
            ],
            "stateMutability": "view",
            "type": "function"
        },
        {
            "inputs": [
                {
                    "internalType": "address",
                    "name": "from",
                    "type": "address"
                },
                {
                    "internalType": "address",
                    "name": "to",
                    "type": "address"
                },
                {
                    "internalType": "uint256",
                    "name": "tokenId",
                    "type": "uint256"
                }
            ],
            "name": "safeTransferFrom",
            "outputs": [],
            "stateMutability": "nonpayable",
            "type": "function"
        },
        {
            "inputs": [
                {
                    "internalType": "address",
                    "name": "from",
                    "type": "address"
                },
                {
                    "internalType": "address",
                    "name": "to",
                    "type": "address"
                },
                {
                    "internalType": "uint256",
                    "name": "tokenId",
                    "type": "uint256"
                },
                {
                    "internalType": "bytes",
                    "name": "data",
                    "type": "bytes"
                }
            ],
            "name": "safeTransferFrom",
            "outputs": [],
            "stateMutability": "nonpayable",
            "type": "function"
        },
        {
            "inputs": [
                {
                    "internalType": "address",
                    "name": "operator",
                    "type": "address"
                },
                {
                    "internalType": "bool",
                    "name": "approved",
                    "type": "bool"
                }
            ],
            "name": "setApprovalForAll",
            "outputs": [],
            "stateMutability": "nonpayable",
            "type": "function"
        },
        {
            "inputs": [
                {
                    "internalType": "int256",
                    "name": "_x",
                    "type": "int256"
                },
                {
                    "internalType": "int256",
                    "name": "_y",
                    "type": "int256"
                },
                {
                    "internalType": "int256",
                    "name": "_z",
                    "type": "int256"
                },
                {
                    "internalType": "uint256",
                    "name": "_color",
                    "type": "uint256"
                }
            ],
            "name": "setColor",
            "outputs": [],
            "stateMutability": "nonpayable",
            "type": "function"
        },
        {
            "inputs": [
                {
                    "internalType": "bytes4",
                    "name": "interfaceId",
                    "type": "bytes4"
                }
            ],
            "name": "supportsInterface",
            "outputs": [
                {
                    "internalType": "bool",
                    "name": "",
                    "type": "bool"
                }
            ],
            "stateMutability": "view",
            "type": "function"
        },
        {
            "inputs": [],
            "name": "symbol",
            "outputs": [
                {
                    "internalType": "string",
                    "name": "",
                    "type": "string"
                }
            ],
            "stateMutability": "view",
            "type": "function"
        },
        {
            "inputs": [
                {
                    "internalType": "uint256",
                    "name": "tokenId",
                    "type": "uint256"
                }
            ],
            "name": "tokenURI",
            "outputs": [
                {
                    "internalType": "string",
                    "name": "",
                    "type": "string"
                }
            ],
            "stateMutability": "view",
            "type": "function"
        },
        {
            "inputs": [
                {
                    "internalType": "address",
                    "name": "from",
                    "type": "address"
                },
                {
                    "internalType": "address",
                    "name": "to",
                    "type": "address"
                },
                {
                    "internalType": "uint256",
                    "name": "tokenId",
                    "type": "uint256"
                }
            ],
            "name": "transferFrom",
            "outputs": [],
            "stateMutability": "nonpayable",
            "type": "function"
        }
    ],
    "bytecode": "0x60806040523480156200001157600080fd5b506040518060400160405280600581526020017f4c696768740000000000000000000000000000000000000000000000000000008152506040518060400160405280600281526020017f4c54000000000000000000000000000000000000000000000000000000000000815250816000908051906020019062000096929190620000b8565b508060019080519060200190620000af929190620000b8565b505050620001cd565b828054620000c69062000168565b90600052602060002090601f016020900481019282620000ea576000855562000136565b82601f106200010557805160ff191683800117855562000136565b8280016001018555821562000136579182015b828111156200013557825182559160200191906001019062000118565b5b50905062000145919062000149565b5090565b5b80821115620001645760008160009055506001016200014a565b5090565b600060028204905060018216806200018157607f821691505b602082108114156200019857620001976200019e565b5b50919050565b7f4e487b7100000000000000000000000000000000000000000000000000000000600052602260045260246000fd5b61288080620001dd6000396000f3fe608060405234801561001057600080fd5b506004361061010b5760003560e01c806370a08231116100a2578063b814f6bb11610071578063b814f6bb146102b4578063b88d4fde146102e5578063c87b56dd14610301578063e985e9c514610331578063ea893248146103615761010b565b806370a082311461022e5780638681a8511461025e57806395d89b411461027a578063a22cb465146102985761010b565b806323b872dd116100de57806323b872dd146101aa5780632a86af31146101c657806342842e0e146101e25780636352211e146101fe5761010b565b806301ffc9a71461011057806306fdde0314610140578063081812fc1461015e578063095ea7b31461018e575b600080fd5b61012a60048036038101906101259190611a98565b610393565b6040516101379190611f2d565b60405180910390f35b610148610475565b6040516101559190611fd2565b60405180910390f35b61017860048036038101906101739190611c13565b610507565b6040516101859190611e9d565b60405180910390f35b6101a860048036038101906101a39190611a5c565b61054d565b005b6101c460048036038101906101bf9190611956565b610665565b005b6101e060048036038101906101db9190611b9c565b6106c5565b005b6101fc60048036038101906101f79190611956565b610874565b005b61021860048036038101906102139190611c13565b610894565b6040516102259190611e9d565b60405180910390f35b610248600480360381019061024391906118f1565b610946565b6040516102559190612134565b60405180910390f35b61027860048036038101906102739190611b39565b6109fe565b005b610282610a80565b60405161028f9190611fd2565b60405180910390f35b6102b260048036038101906102ad9190611a20565b610b12565b005b6102ce60048036038101906102c99190611aea565b610b28565b6040516102dc929190611f04565b60405180910390f35b6102ff60048036038101906102fa91906119a5565b610c0d565b005b61031b60048036038101906103169190611c13565b610c6f565b6040516103289190611fd2565b60405180910390f35b61034b6004803603810190610346919061191a565b610cd7565b6040516103589190611f2d565b60405180910390f35b61037b60048036038101906103769190611aea565b610d6b565b60405161038a93929190611f48565b60405180910390f35b60007f80ac58cd000000000000000000000000000000000000000000000000000000007bffffffffffffffffffffffffffffffffffffffffffffffffffffffff1916827bffffffffffffffffffffffffffffffffffffffffffffffffffffffff1916148061045e57507f5b5e139f000000000000000000000000000000000000000000000000000000007bffffffffffffffffffffffffffffffffffffffffffffffffffffffff1916827bffffffffffffffffffffffffffffffffffffffffffffffffffffffff1916145b8061046e575061046d82610ddc565b5b9050919050565b60606000805461048490612363565b80601f01602080910402602001604051908101604052809291908181526020018280546104b090612363565b80156104fd5780601f106104d2576101008083540402835291602001916104fd565b820191906000526020600020905b8154815290600101906020018083116104e057829003601f168201915b5050505050905090565b600061051282610e46565b6004600083815260200190815260200160002060009054906101000a900473ffffffffffffffffffffffffffffffffffffffff169050919050565b600061055882610894565b90508073ffffffffffffffffffffffffffffffffffffffff168373ffffffffffffffffffffffffffffffffffffffff1614156105c9576040517f08c379a00000000000000000000000000000000000000000000000000000000081526004016105c0906120d4565b60405180910390fd5b8073ffffffffffffffffffffffffffffffffffffffff166105e8610e91565b73ffffffffffffffffffffffffffffffffffffffff161480610617575061061681610611610e91565b610cd7565b5b610656576040517f08c379a000000000000000000000000000000000000000000000000000000000815260040161064d90612094565b60405180910390fd5b6106608383610e99565b505050565b610676610670610e91565b82610f52565b6106b5576040517f08c379a00000000000000000000000000000000000000000000000000000000081526004016106ac90612114565b60405180910390fd5b6106c0838383610fe7565b505050565b60001515600660008781526020019081526020016000206000868152602001908152602001600020600085815260200190815260200160002060000160009054906101000a900460ff16151514610751576040517f08c379a0000000000000000000000000000000000000000000000000000000008152600401610748906120f4565b60405180910390fd5b60405180606001604052806001151581526020018273ffffffffffffffffffffffffffffffffffffffff16815260200183815250600660008781526020019081526020016000206000868152602001908152602001600020600085815260200190815260200160002060008201518160000160006101000a81548160ff02191690831515021790555060208201518160000160016101000a81548173ffffffffffffffffffffffffffffffffffffffff021916908373ffffffffffffffffffffffffffffffffffffffff160217905550604082015181600101559050507f77bf884b8a769aba6415185c453b22f8c441ad048a0c2594de5bc365dbfb2fad8585858585604051610865959493929190611f7f565b60405180910390a15050505050565b61088f83838360405180602001604052806000815250610c0d565b505050565b6000806002600084815260200190815260200160002060009054906101000a900473ffffffffffffffffffffffffffffffffffffffff169050600073ffffffffffffffffffffffffffffffffffffffff168173ffffffffffffffffffffffffffffffffffffffff16141561093d576040517f08c379a0000000000000000000000000000000000000000000000000000000008152600401610934906120b4565b60405180910390fd5b80915050919050565b60008073ffffffffffffffffffffffffffffffffffffffff168273ffffffffffffffffffffffffffffffffffffffff1614156109b7576040517f08c379a00000000000000000000000000000000000000000000000000000000081526004016109ae90612074565b60405180910390fd5b600360008373ffffffffffffffffffffffffffffffffffffffff1673ffffffffffffffffffffffffffffffffffffffff168152602001908152602001600020549050919050565b806006600086815260200190815260200160002060008581526020019081526020016000206000848152602001908152602001600020600101819055507fdaa92d69b20b9b6b1b97a0bed422d91cd84d2ef2b97f6eaf365cbe93f0a996798484848433604051610a72959493929190611f7f565b60405180910390a150505050565b606060018054610a8f90612363565b80601f0160208091040260200160405190810160405280929190818152602001828054610abb90612363565b8015610b085780601f10610add57610100808354040283529160200191610b08565b820191906000526020600020905b815481529060010190602001808311610aeb57829003601f168201915b5050505050905090565b610b24610b1d610e91565b838361124e565b5050565b600080600060066000878152602001908152602001600020600086815260200190815260200160002060008581526020019081526020016000206040518060600160405290816000820160009054906101000a900460ff161515151581526020016000820160019054906101000a900473ffffffffffffffffffffffffffffffffffffffff1673ffffffffffffffffffffffffffffffffffffffff1673ffffffffffffffffffffffffffffffffffffffff1681526020016001820154815250509050600081602001519050600082604001519050818194509450505050935093915050565b610c1e610c18610e91565b83610f52565b610c5d576040517f08c379a0000000000000000000000000000000000000000000000000000000008152600401610c5490612114565b60405180910390fd5b610c69848484846113bb565b50505050565b6060610c7a82610e46565b6000610c84611417565b90506000815111610ca45760405180602001604052806000815250610ccf565b80610cae8461142e565b604051602001610cbf929190611e79565b6040516020818303038152906040525b915050919050565b6000600560008473ffffffffffffffffffffffffffffffffffffffff1673ffffffffffffffffffffffffffffffffffffffff16815260200190815260200160002060008373ffffffffffffffffffffffffffffffffffffffff1673ffffffffffffffffffffffffffffffffffffffff16815260200190815260200160002060009054906101000a900460ff16905092915050565b600660205282600052604060002060205281600052604060002060205280600052604060002060009250925050508060000160009054906101000a900460ff16908060000160019054906101000a900473ffffffffffffffffffffffffffffffffffffffff16908060010154905083565b60007f01ffc9a7000000000000000000000000000000000000000000000000000000007bffffffffffffffffffffffffffffffffffffffffffffffffffffffff1916827bffffffffffffffffffffffffffffffffffffffffffffffffffffffff1916149050919050565b610e4f816115db565b610e8e576040517f08c379a0000000000000000000000000000000000000000000000000000000008152600401610e85906120b4565b60405180910390fd5b50565b600033905090565b816004600083815260200190815260200160002060006101000a81548173ffffffffffffffffffffffffffffffffffffffff021916908373ffffffffffffffffffffffffffffffffffffffff160217905550808273ffffffffffffffffffffffffffffffffffffffff16610f0c83610894565b73ffffffffffffffffffffffffffffffffffffffff167f8c5be1e5ebec7d5bd14f71427d1e84f3dd0314c0f7b2291e5b200ac8c7c3b92560405160405180910390a45050565b600080610f5e83610894565b90508073ffffffffffffffffffffffffffffffffffffffff168473ffffffffffffffffffffffffffffffffffffffff161480610fa05750610f9f8185610cd7565b5b80610fde57508373ffffffffffffffffffffffffffffffffffffffff16610fc684610507565b73ffffffffffffffffffffffffffffffffffffffff16145b91505092915050565b8273ffffffffffffffffffffffffffffffffffffffff1661100782610894565b73ffffffffffffffffffffffffffffffffffffffff161461105d576040517f08c379a000000000000000000000000000000000000000000000000000000000815260040161105490612014565b60405180910390fd5b600073ffffffffffffffffffffffffffffffffffffffff168273ffffffffffffffffffffffffffffffffffffffff1614156110cd576040517f08c379a00000000000000000000000000000000000000000000000000000000081526004016110c490612034565b60405180910390fd5b6110d8838383611647565b6110e3600082610e99565b6001600360008573ffffffffffffffffffffffffffffffffffffffff1673ffffffffffffffffffffffffffffffffffffffff1681526020019081526020016000206000828254611133919061226f565b925050819055506001600360008473ffffffffffffffffffffffffffffffffffffffff1673ffffffffffffffffffffffffffffffffffffffff168152602001908152602001600020600082825461118a91906121e8565b92505081905550816002600083815260200190815260200160002060006101000a81548173ffffffffffffffffffffffffffffffffffffffff021916908373ffffffffffffffffffffffffffffffffffffffff160217905550808273ffffffffffffffffffffffffffffffffffffffff168473ffffffffffffffffffffffffffffffffffffffff167fddf252ad1be2c89b69c2b068fc378daa952ba7f163c4a11628f55a4df523b3ef60405160405180910390a461124983838361164c565b505050565b8173ffffffffffffffffffffffffffffffffffffffff168373ffffffffffffffffffffffffffffffffffffffff1614156112bd576040517f08c379a00000000000000000000000000000000000000000000000000000000081526004016112b490612054565b60405180910390fd5b80600560008573ffffffffffffffffffffffffffffffffffffffff1673ffffffffffffffffffffffffffffffffffffffff16815260200190815260200160002060008473ffffffffffffffffffffffffffffffffffffffff1673ffffffffffffffffffffffffffffffffffffffff16815260200190815260200160002060006101000a81548160ff0219169083151502179055508173ffffffffffffffffffffffffffffffffffffffff168373ffffffffffffffffffffffffffffffffffffffff167f17307eab39ab6107e8899845ad3d59bd9653f200f220920489ca2b5937696c31836040516113ae9190611f2d565b60405180910390a3505050565b6113c6848484610fe7565b6113d284848484611651565b611411576040517f08c379a000000000000000000000000000000000000000000000000000000000815260040161140890611ff4565b60405180910390fd5b50505050565b606060405180602001604052806000815250905090565b60606000821415611476576040518060400160405280600181526020017f300000000000000000000000000000000000000000000000000000000000000081525090506115d6565b600082905060005b600082146114a8578080611491906123c6565b915050600a826114a1919061223e565b915061147e565b60008167ffffffffffffffff8111156114ea577f4e487b7100000000000000000000000000000000000000000000000000000000600052604160045260246000fd5b6040519080825280601f01601f19166020018201604052801561151c5781602001600182028036833780820191505090505b5090505b600085146115cf57600182611535919061226f565b9150600a85611544919061240f565b603061155091906121e8565b60f81b81838151811061158c577f4e487b7100000000000000000000000000000000000000000000000000000000600052603260045260246000fd5b60200101907effffffffffffffffffffffffffffffffffffffffffffffffffffffffffffff1916908160001a905350600a856115c8919061223e565b9450611520565b8093505050505b919050565b60008073ffffffffffffffffffffffffffffffffffffffff166002600084815260200190815260200160002060009054906101000a900473ffffffffffffffffffffffffffffffffffffffff1673ffffffffffffffffffffffffffffffffffffffff1614159050919050565b505050565b505050565b60006116728473ffffffffffffffffffffffffffffffffffffffff166117e8565b156117db578373ffffffffffffffffffffffffffffffffffffffff1663150b7a0261169b610e91565b8786866040518563ffffffff1660e01b81526004016116bd9493929190611eb8565b602060405180830381600087803b1580156116d757600080fd5b505af192505050801561170857506040513d601f19601f820116820180604052508101906117059190611ac1565b60015b61178b573d8060008114611738576040519150601f19603f3d011682016040523d82523d6000602084013e61173d565b606091505b50600081511415611783576040517f08c379a000000000000000000000000000000000000000000000000000000000815260040161177a90611ff4565b60405180910390fd5b805181602001fd5b63150b7a0260e01b7bffffffffffffffffffffffffffffffffffffffffffffffffffffffff1916817bffffffffffffffffffffffffffffffffffffffffffffffffffffffff1916149150506117e0565b600190505b949350505050565b6000808273ffffffffffffffffffffffffffffffffffffffff163b119050919050565b600061181e61181984612174565b61214f565b90508281526020810184848401111561183657600080fd5b611841848285612321565b509392505050565b600081359050611858816127d7565b92915050565b60008135905061186d816127ee565b92915050565b60008135905061188281612805565b92915050565b60008151905061189781612805565b92915050565b600082601f8301126118ae57600080fd5b81356118be84826020860161180b565b91505092915050565b6000813590506118d68161281c565b92915050565b6000813590506118eb81612833565b92915050565b60006020828403121561190357600080fd5b600061191184828501611849565b91505092915050565b6000806040838503121561192d57600080fd5b600061193b85828601611849565b925050602061194c85828601611849565b9150509250929050565b60008060006060848603121561196b57600080fd5b600061197986828701611849565b935050602061198a86828701611849565b925050604061199b868287016118dc565b9150509250925092565b600080600080608085870312156119bb57600080fd5b60006119c987828801611849565b94505060206119da87828801611849565b93505060406119eb878288016118dc565b925050606085013567ffffffffffffffff811115611a0857600080fd5b611a148782880161189d565b91505092959194509250565b60008060408385031215611a3357600080fd5b6000611a4185828601611849565b9250506020611a528582860161185e565b9150509250929050565b60008060408385031215611a6f57600080fd5b6000611a7d85828601611849565b9250506020611a8e858286016118dc565b9150509250929050565b600060208284031215611aaa57600080fd5b6000611ab884828501611873565b91505092915050565b600060208284031215611ad357600080fd5b6000611ae184828501611888565b91505092915050565b600080600060608486031215611aff57600080fd5b6000611b0d868287016118c7565b9350506020611b1e868287016118c7565b9250506040611b2f868287016118c7565b9150509250925092565b60008060008060808587031215611b4f57600080fd5b6000611b5d878288016118c7565b9450506020611b6e878288016118c7565b9350506040611b7f878288016118c7565b9250506060611b90878288016118dc565b91505092959194509250565b600080600080600060a08688031215611bb457600080fd5b6000611bc2888289016118c7565b9550506020611bd3888289016118c7565b9450506040611be4888289016118c7565b9350506060611bf5888289016118dc565b9250506080611c0688828901611849565b9150509295509295909350565b600060208284031215611c2557600080fd5b6000611c33848285016118dc565b91505092915050565b611c45816122a3565b82525050565b611c54816122b5565b82525050565b6000611c65826121a5565b611c6f81856121bb565b9350611c7f818560208601612330565b611c88816124fc565b840191505092915050565b611c9c816122ed565b82525050565b6000611cad826121b0565b611cb781856121cc565b9350611cc7818560208601612330565b611cd0816124fc565b840191505092915050565b6000611ce6826121b0565b611cf081856121dd565b9350611d00818560208601612330565b80840191505092915050565b6000611d196032836121cc565b9150611d248261250d565b604082019050919050565b6000611d3c6025836121cc565b9150611d478261255c565b604082019050919050565b6000611d5f6024836121cc565b9150611d6a826125ab565b604082019050919050565b6000611d826019836121cc565b9150611d8d826125fa565b602082019050919050565b6000611da56029836121cc565b9150611db082612623565b604082019050919050565b6000611dc8603e836121cc565b9150611dd382612672565b604082019050919050565b6000611deb6018836121cc565b9150611df6826126c1565b602082019050919050565b6000611e0e6021836121cc565b9150611e19826126ea565b604082019050919050565b6000611e316027836121cc565b9150611e3c82612739565b604082019050919050565b6000611e54602e836121cc565b9150611e5f82612788565b604082019050919050565b611e7381612317565b82525050565b6000611e858285611cdb565b9150611e918284611cdb565b91508190509392505050565b6000602082019050611eb26000830184611c3c565b92915050565b6000608082019050611ecd6000830187611c3c565b611eda6020830186611c3c565b611ee76040830185611e6a565b8181036060830152611ef98184611c5a565b905095945050505050565b6000604082019050611f196000830185611c3c565b611f266020830184611e6a565b9392505050565b6000602082019050611f426000830184611c4b565b92915050565b6000606082019050611f5d6000830186611c4b565b611f6a6020830185611c3c565b611f776040830184611e6a565b949350505050565b600060a082019050611f946000830188611c93565b611fa16020830187611c93565b611fae6040830186611c93565b611fbb6060830185611e6a565b611fc86080830184611c3c565b9695505050505050565b60006020820190508181036000830152611fec8184611ca2565b905092915050565b6000602082019050818103600083015261200d81611d0c565b9050919050565b6000602082019050818103600083015261202d81611d2f565b9050919050565b6000602082019050818103600083015261204d81611d52565b9050919050565b6000602082019050818103600083015261206d81611d75565b9050919050565b6000602082019050818103600083015261208d81611d98565b9050919050565b600060208201905081810360008301526120ad81611dbb565b9050919050565b600060208201905081810360008301526120cd81611dde565b9050919050565b600060208201905081810360008301526120ed81611e01565b9050919050565b6000602082019050818103600083015261210d81611e24565b9050919050565b6000602082019050818103600083015261212d81611e47565b9050919050565b60006020820190506121496000830184611e6a565b92915050565b600061215961216a565b90506121658282612395565b919050565b6000604051905090565b600067ffffffffffffffff82111561218f5761218e6124cd565b5b612198826124fc565b9050602081019050919050565b600081519050919050565b600081519050919050565b600082825260208201905092915050565b600082825260208201905092915050565b600081905092915050565b60006121f382612317565b91506121fe83612317565b9250827fffffffffffffffffffffffffffffffffffffffffffffffffffffffffffffffff0382111561223357612232612440565b5b828201905092915050565b600061224982612317565b915061225483612317565b9250826122645761226361246f565b5b828204905092915050565b600061227a82612317565b915061228583612317565b92508282101561229857612297612440565b5b828203905092915050565b60006122ae826122f7565b9050919050565b60008115159050919050565b60007fffffffff0000000000000000000000000000000000000000000000000000000082169050919050565b6000819050919050565b600073ffffffffffffffffffffffffffffffffffffffff82169050919050565b6000819050919050565b82818337600083830152505050565b60005b8381101561234e578082015181840152602081019050612333565b8381111561235d576000848401525b50505050565b6000600282049050600182168061237b57607f821691505b6020821081141561238f5761238e61249e565b5b50919050565b61239e826124fc565b810181811067ffffffffffffffff821117156123bd576123bc6124cd565b5b80604052505050565b60006123d182612317565b91507fffffffffffffffffffffffffffffffffffffffffffffffffffffffffffffffff82141561240457612403612440565b5b600182019050919050565b600061241a82612317565b915061242583612317565b9250826124355761243461246f565b5b828206905092915050565b7f4e487b7100000000000000000000000000000000000000000000000000000000600052601160045260246000fd5b7f4e487b7100000000000000000000000000000000000000000000000000000000600052601260045260246000fd5b7f4e487b7100000000000000000000000000000000000000000000000000000000600052602260045260246000fd5b7f4e487b7100000000000000000000000000000000000000000000000000000000600052604160045260246000fd5b6000601f19601f8301169050919050565b7f4552433732313a207472616e7366657220746f206e6f6e20455243373231526560008201527f63656976657220696d706c656d656e7465720000000000000000000000000000602082015250565b7f4552433732313a207472616e736665722066726f6d20696e636f72726563742060008201527f6f776e6572000000000000000000000000000000000000000000000000000000602082015250565b7f4552433732313a207472616e7366657220746f20746865207a65726f2061646460008201527f7265737300000000000000000000000000000000000000000000000000000000602082015250565b7f4552433732313a20617070726f766520746f2063616c6c657200000000000000600082015250565b7f4552433732313a2061646472657373207a65726f206973206e6f74206120766160008201527f6c6964206f776e65720000000000000000000000000000000000000000000000602082015250565b7f4552433732313a20617070726f76652063616c6c6572206973206e6f7420746f60008201527f6b656e206f776e6572206e6f7220617070726f76656420666f7220616c6c0000602082015250565b7f4552433732313a20696e76616c696420746f6b656e2049440000000000000000600082015250565b7f4552433732313a20617070726f76616c20746f2063757272656e74206f776e6560008201527f7200000000000000000000000000000000000000000000000000000000000000602082015250565b7f4c696768743a2074686973204e46542068617320616c7265616479206265656e60008201527f206d696e74656400000000000000000000000000000000000000000000000000602082015250565b7f4552433732313a2063616c6c6572206973206e6f7420746f6b656e206f776e6560008201527f72206e6f7220617070726f766564000000000000000000000000000000000000602082015250565b6127e0816122a3565b81146127eb57600080fd5b50565b6127f7816122b5565b811461280257600080fd5b50565b61280e816122c1565b811461281957600080fd5b50565b612825816122ed565b811461283057600080fd5b50565b61283c81612317565b811461284757600080fd5b5056fea26469706673582212200f8973a2151a9bf19609d660eca0adba1451c4ad07f40bfedd5c3421667a205764736f6c63430008040033",
    "linkReferences": {},
    "deployedLinkReferences": {}
}