{
  "contractName": "Light",
  "abi": [
    {
      "inputs": [],
      "stateMutability": "nonpayable",
      "type": "constructor"
    },
    {
      "anonymous": false,
      "inputs": [
        {
          "indexed": true,
          "internalType": "address",
          "name": "owner",
          "type": "address"
        },
        {
          "indexed": true,
          "internalType": "address",
          "name": "approved",
          "type": "address"
        },
        {
          "indexed": true,
          "internalType": "uint256",
          "name": "tokenId",
          "type": "uint256"
        }
      ],
      "name": "Approval",
      "type": "event"
    },
    {
      "anonymous": false,
      "inputs": [
        {
          "indexed": true,
          "internalType": "address",
          "name": "owner",
          "type": "address"
        },
        {
          "indexed": true,
          "internalType": "address",
          "name": "operator",
          "type": "address"
        },
        {
          "indexed": false,
          "internalType": "bool",
          "name": "approved",
          "type": "bool"
        }
      ],
      "name": "ApprovalForAll",
      "type": "event"
    },
    {
      "anonymous": false,
      "inputs": [
        {
          "indexed": false,
          "internalType": "uint256",
          "name": "x",
          "type": "uint256"
        },
        {
          "indexed": false,
          "internalType": "uint256",
          "name": "y",
          "type": "uint256"
        },
        {
          "indexed": false,
          "internalType": "uint256",
          "name": "z",
          "type": "uint256"
        },
        {
          "indexed": false,
          "internalType": "uint256",
          "name": "color",
          "type": "uint256"
        },
        {
          "indexed": false,
          "internalType": "address",
          "name": "minter",
          "type": "address"
        }
      ],
      "name": "Minted",
      "type": "event"
    },
    {
      "anonymous": false,
      "inputs": [
        {
          "indexed": true,
          "internalType": "address",
          "name": "from",
          "type": "address"
        },
        {
          "indexed": true,
          "internalType": "address",
          "name": "to",
          "type": "address"
        },
        {
          "indexed": true,
          "internalType": "uint256",
          "name": "tokenId",
          "type": "uint256"
        }
      ],
      "name": "Transfer",
      "type": "event"
    },
    {
      "anonymous": false,
      "inputs": [
        {
          "indexed": false,
          "internalType": "uint256",
          "name": "x",
          "type": "uint256"
        },
        {
          "indexed": false,
          "internalType": "uint256",
          "name": "y",
          "type": "uint256"
        },
        {
          "indexed": false,
          "internalType": "uint256",
          "name": "z",
          "type": "uint256"
        },
        {
          "indexed": false,
          "internalType": "uint256",
          "name": "color",
          "type": "uint256"
        },
        {
          "indexed": false,
          "internalType": "address",
          "name": "updater",
          "type": "address"
        }
      ],
      "name": "UpdatedColor",
      "type": "event"
    },
    {
      "inputs": [
        {
          "internalType": "address",
          "name": "to",
          "type": "address"
        },
        {
          "internalType": "uint256",
          "name": "tokenId",
          "type": "uint256"
        }
      ],
      "name": "approve",
      "outputs": [],
      "stateMutability": "nonpayable",
      "type": "function"
    },
    {
      "inputs": [
        {
          "internalType": "address",
          "name": "owner",
          "type": "address"
        }
      ],
      "name": "balanceOf",
      "outputs": [
        {
          "internalType": "uint256",
          "name": "",
          "type": "uint256"
        }
      ],
      "stateMutability": "view",
      "type": "function",
      "constant": true
    },
    {
      "inputs": [
        {
          "internalType": "uint256",
          "name": "tokenId",
          "type": "uint256"
        }
      ],
      "name": "getApproved",
      "outputs": [
        {
          "internalType": "address",
          "name": "",
          "type": "address"
        }
      ],
      "stateMutability": "view",
      "type": "function",
      "constant": true
    },
    {
      "inputs": [
        {
          "internalType": "address",
          "name": "owner",
          "type": "address"
        },
        {
          "internalType": "address",
          "name": "operator",
          "type": "address"
        }
      ],
      "name": "isApprovedForAll",
      "outputs": [
        {
          "internalType": "bool",
          "name": "",
          "type": "bool"
        }
      ],
      "stateMutability": "view",
      "type": "function",
      "constant": true
    },
    {
      "inputs": [
        {
          "internalType": "uint256",
          "name": "",
          "type": "uint256"
        },
        {
          "internalType": "uint256",
          "name": "",
          "type": "uint256"
        },
        {
          "internalType": "uint256",
          "name": "",
          "type": "uint256"
        }
      ],
      "name": "light",
      "outputs": [
        {
          "internalType": "bool",
          "name": "minted",
          "type": "bool"
        },
        {
          "internalType": "address",
          "name": "owner",
          "type": "address"
        },
        {
          "internalType": "uint256",
          "name": "color",
          "type": "uint256"
        }
      ],
      "stateMutability": "view",
      "type": "function",
      "constant": true
    },
    {
      "inputs": [],
      "name": "name",
      "outputs": [
        {
          "internalType": "string",
          "name": "",
          "type": "string"
        }
      ],
      "stateMutability": "view",
      "type": "function",
      "constant": true
    },
    {
      "inputs": [
        {
          "internalType": "uint256",
          "name": "tokenId",
          "type": "uint256"
        }
      ],
      "name": "ownerOf",
      "outputs": [
        {
          "internalType": "address",
          "name": "",
          "type": "address"
        }
      ],
      "stateMutability": "view",
      "type": "function",
      "constant": true
    },
    {
      "inputs": [
        {
          "internalType": "address",
          "name": "from",
          "type": "address"
        },
        {
          "internalType": "address",
          "name": "to",
          "type": "address"
        },
        {
          "internalType": "uint256",
          "name": "tokenId",
          "type": "uint256"
        }
      ],
      "name": "safeTransferFrom",
      "outputs": [],
      "stateMutability": "nonpayable",
      "type": "function"
    },
    {
      "inputs": [
        {
          "internalType": "address",
          "name": "from",
          "type": "address"
        },
        {
          "internalType": "address",
          "name": "to",
          "type": "address"
        },
        {
          "internalType": "uint256",
          "name": "tokenId",
          "type": "uint256"
        },
        {
          "internalType": "bytes",
          "name": "data",
          "type": "bytes"
        }
      ],
      "name": "safeTransferFrom",
      "outputs": [],
      "stateMutability": "nonpayable",
      "type": "function"
    },
    {
      "inputs": [
        {
          "internalType": "address",
          "name": "operator",
          "type": "address"
        },
        {
          "internalType": "bool",
          "name": "approved",
          "type": "bool"
        }
      ],
      "name": "setApprovalForAll",
      "outputs": [],
      "stateMutability": "nonpayable",
      "type": "function"
    },
    {
      "inputs": [
        {
          "internalType": "bytes4",
          "name": "interfaceId",
          "type": "bytes4"
        }
      ],
      "name": "supportsInterface",
      "outputs": [
        {
          "internalType": "bool",
          "name": "",
          "type": "bool"
        }
      ],
      "stateMutability": "view",
      "type": "function",
      "constant": true
    },
    {
      "inputs": [],
      "name": "symbol",
      "outputs": [
        {
          "internalType": "string",
          "name": "",
          "type": "string"
        }
      ],
      "stateMutability": "view",
      "type": "function",
      "constant": true
    },
    {
      "inputs": [
        {
          "internalType": "uint256",
          "name": "tokenId",
          "type": "uint256"
        }
      ],
      "name": "tokenURI",
      "outputs": [
        {
          "internalType": "string",
          "name": "",
          "type": "string"
        }
      ],
      "stateMutability": "view",
      "type": "function",
      "constant": true
    },
    {
      "inputs": [
        {
          "internalType": "address",
          "name": "from",
          "type": "address"
        },
        {
          "internalType": "address",
          "name": "to",
          "type": "address"
        },
        {
          "internalType": "uint256",
          "name": "tokenId",
          "type": "uint256"
        }
      ],
      "name": "transferFrom",
      "outputs": [],
      "stateMutability": "nonpayable",
      "type": "function"
    },
    {
      "inputs": [
        {
          "internalType": "uint256",
          "name": "_x",
          "type": "uint256"
        },
        {
          "internalType": "uint256",
          "name": "_y",
          "type": "uint256"
        },
        {
          "internalType": "uint256",
          "name": "_z",
          "type": "uint256"
        }
      ],
      "name": "getLightInfo",
      "outputs": [
        {
          "internalType": "address",
          "name": "owner",
          "type": "address"
        },
        {
          "internalType": "uint256",
          "name": "color",
          "type": "uint256"
        }
      ],
      "stateMutability": "view",
      "type": "function",
      "constant": true
    },
    {
      "inputs": [
        {
          "internalType": "uint256",
          "name": "_x",
          "type": "uint256"
        },
        {
          "internalType": "uint256",
          "name": "_y",
          "type": "uint256"
        },
        {
          "internalType": "uint256",
          "name": "_z",
          "type": "uint256"
        },
        {
          "internalType": "uint256",
          "name": "_color",
          "type": "uint256"
        }
      ],
      "name": "setColor",
      "outputs": [],
      "stateMutability": "nonpayable",
      "type": "function"
    },
    {
      "inputs": [
        {
          "internalType": "uint256",
          "name": "_x",
          "type": "uint256"
        },
        {
          "internalType": "uint256",
          "name": "_y",
          "type": "uint256"
        },
        {
          "internalType": "uint256",
          "name": "_z",
          "type": "uint256"
        },
        {
          "internalType": "uint256",
          "name": "_color",
          "type": "uint256"
        },
        {
          "internalType": "address",
          "name": "_owner",
          "type": "address"
        }
      ],
      "name": "mint",
      "outputs": [],
      "stateMutability": "nonpayable",
      "type": "function"
    }
  ],
  "bytecode": "0x60806040523480156200001157600080fd5b506040518060400160405280600581526020017f4c696768740000000000000000000000000000000000000000000000000000008152506040518060400160405280600281526020017f4c54000000000000000000000000000000000000000000000000000000000000815250816000908051906020019062000096929190620000b8565b508060019080519060200190620000af929190620000b8565b505050620001cd565b828054620000c69062000197565b90600052602060002090601f016020900481019282620000ea576000855562000136565b82601f106200010557805160ff191683800117855562000136565b8280016001018555821562000136579182015b828111156200013557825182559160200191906001019062000118565b5b50905062000145919062000149565b5090565b5b80821115620001645760008160009055506001016200014a565b5090565b7f4e487b7100000000000000000000000000000000000000000000000000000000600052602260045260246000fd5b60006002820490506001821680620001b057607f821691505b60208210811415620001c757620001c662000168565b5b50919050565b61285f80620001dd6000396000f3fe608060405234801561001057600080fd5b506004361061010b5760003560e01c80636352211e116100a2578063a3e6dc2811610071578063a3e6dc28146102c9578063a4e4d762146102e5578063b88d4fde14610317578063c87b56dd14610333578063e985e9c5146103635761010b565b80636352211e1461022f57806370a082311461025f57806395d89b411461028f578063a22cb465146102ad5761010b565b8063095ea7b3116100de578063095ea7b3146101aa57806323b872dd146101c65780633662af1a146101e257806342842e0e146102135761010b565b8063017c88601461011057806301ffc9a71461012c57806306fdde031461015c578063081812fc1461017a575b600080fd5b61012a600480360381019061012591906117fa565b610393565b005b610146600480360381019061014191906118b9565b610415565b6040516101539190611901565b60405180910390f35b6101646104f7565b60405161017191906119b5565b60405180910390f35b610194600480360381019061018f91906119d7565b610589565b6040516101a19190611a45565b60405180910390f35b6101c460048036038101906101bf9190611a8c565b6105cf565b005b6101e060048036038101906101db9190611acc565b6106e7565b005b6101fc60048036038101906101f79190611b1f565b610747565b60405161020a929190611b81565b60405180910390f35b61022d60048036038101906102289190611acc565b61082c565b005b610249600480360381019061024491906119d7565b61084c565b6040516102569190611a45565b60405180910390f35b61027960048036038101906102749190611baa565b6108fe565b6040516102869190611bd7565b60405180910390f35b6102976109b6565b6040516102a491906119b5565b60405180910390f35b6102c760048036038101906102c29190611c1e565b610a48565b005b6102e360048036038101906102de9190611c5e565b610a5e565b005b6102ff60048036038101906102fa9190611b1f565b610c0d565b60405161030e93929190611cd9565b60405180910390f35b610331600480360381019061032c9190611e45565b610c7e565b005b61034d600480360381019061034891906119d7565b610ce0565b60405161035a91906119b5565b60405180910390f35b61037d60048036038101906103789190611ec8565b610d48565b60405161038a9190611901565b60405180910390f35b806006600086815260200190815260200160002060008581526020019081526020016000206000848152602001908152602001600020600101819055507f73762d35a6454fe547a78d2808729a42844cc72738fc57940f2b4b65bb44a7418484848433604051610407959493929190611f08565b60405180910390a150505050565b60007f80ac58cd000000000000000000000000000000000000000000000000000000007bffffffffffffffffffffffffffffffffffffffffffffffffffffffff1916827bffffffffffffffffffffffffffffffffffffffffffffffffffffffff191614806104e057507f5b5e139f000000000000000000000000000000000000000000000000000000007bffffffffffffffffffffffffffffffffffffffffffffffffffffffff1916827bffffffffffffffffffffffffffffffffffffffffffffffffffffffff1916145b806104f057506104ef82610ddc565b5b9050919050565b60606000805461050690611f8a565b80601f016020809104026020016040519081016040528092919081815260200182805461053290611f8a565b801561057f5780601f106105545761010080835404028352916020019161057f565b820191906000526020600020905b81548152906001019060200180831161056257829003601f168201915b5050505050905090565b600061059482610e46565b6004600083815260200190815260200160002060009054906101000a900473ffffffffffffffffffffffffffffffffffffffff169050919050565b60006105da8261084c565b90508073ffffffffffffffffffffffffffffffffffffffff168373ffffffffffffffffffffffffffffffffffffffff16141561064b576040517f08c379a00000000000000000000000000000000000000000000000000000000081526004016106429061202e565b60405180910390fd5b8073ffffffffffffffffffffffffffffffffffffffff1661066a610e91565b73ffffffffffffffffffffffffffffffffffffffff161480610699575061069881610693610e91565b610d48565b5b6106d8576040517f08c379a00000000000000000000000000000000000000000000000000000000081526004016106cf906120c0565b60405180910390fd5b6106e28383610e99565b505050565b6106f86106f2610e91565b82610f52565b610737576040517f08c379a000000000000000000000000000000000000000000000000000000000815260040161072e90612152565b60405180910390fd5b610742838383610fe7565b505050565b600080600060066000878152602001908152602001600020600086815260200190815260200160002060008581526020019081526020016000206040518060600160405290816000820160009054906101000a900460ff161515151581526020016000820160019054906101000a900473ffffffffffffffffffffffffffffffffffffffff1673ffffffffffffffffffffffffffffffffffffffff1673ffffffffffffffffffffffffffffffffffffffff1681526020016001820154815250509050600081602001519050600082604001519050818194509450505050935093915050565b61084783838360405180602001604052806000815250610c7e565b505050565b6000806002600084815260200190815260200160002060009054906101000a900473ffffffffffffffffffffffffffffffffffffffff169050600073ffffffffffffffffffffffffffffffffffffffff168173ffffffffffffffffffffffffffffffffffffffff1614156108f5576040517f08c379a00000000000000000000000000000000000000000000000000000000081526004016108ec906121be565b60405180910390fd5b80915050919050565b60008073ffffffffffffffffffffffffffffffffffffffff168273ffffffffffffffffffffffffffffffffffffffff16141561096f576040517f08c379a000000000000000000000000000000000000000000000000000000000815260040161096690612250565b60405180910390fd5b600360008373ffffffffffffffffffffffffffffffffffffffff1673ffffffffffffffffffffffffffffffffffffffff168152602001908152602001600020549050919050565b6060600180546109c590611f8a565b80601f01602080910402602001604051908101604052809291908181526020018280546109f190611f8a565b8015610a3e5780601f10610a1357610100808354040283529160200191610a3e565b820191906000526020600020905b815481529060010190602001808311610a2157829003601f168201915b5050505050905090565b610a5a610a53610e91565b838361124e565b5050565b60001515600660008781526020019081526020016000206000868152602001908152602001600020600085815260200190815260200160002060000160009054906101000a900460ff16151514610aea576040517f08c379a0000000000000000000000000000000000000000000000000000000008152600401610ae1906122e2565b60405180910390fd5b60405180606001604052806001151581526020018273ffffffffffffffffffffffffffffffffffffffff16815260200183815250600660008781526020019081526020016000206000868152602001908152602001600020600085815260200190815260200160002060008201518160000160006101000a81548160ff02191690831515021790555060208201518160000160016101000a81548173ffffffffffffffffffffffffffffffffffffffff021916908373ffffffffffffffffffffffffffffffffffffffff160217905550604082015181600101559050507ff662fe75bddea3c807caa0ec77bc2d39ed7b0ad97e666af4b949a4fc6a6dae508585858585604051610bfe959493929190611f08565b60405180910390a15050505050565b600660205282600052604060002060205281600052604060002060205280600052604060002060009250925050508060000160009054906101000a900460ff16908060000160019054906101000a900473ffffffffffffffffffffffffffffffffffffffff16908060010154905083565b610c8f610c89610e91565b83610f52565b610cce576040517f08c379a0000000000000000000000000000000000000000000000000000000008152600401610cc590612152565b60405180910390fd5b610cda848484846113bb565b50505050565b6060610ceb82610e46565b6000610cf5611417565b90506000815111610d155760405180602001604052806000815250610d40565b80610d1f8461142e565b604051602001610d3092919061233e565b6040516020818303038152906040525b915050919050565b6000600560008473ffffffffffffffffffffffffffffffffffffffff1673ffffffffffffffffffffffffffffffffffffffff16815260200190815260200160002060008373ffffffffffffffffffffffffffffffffffffffff1673ffffffffffffffffffffffffffffffffffffffff16815260200190815260200160002060009054906101000a900460ff16905092915050565b60007f01ffc9a7000000000000000000000000000000000000000000000000000000007bffffffffffffffffffffffffffffffffffffffffffffffffffffffff1916827bffffffffffffffffffffffffffffffffffffffffffffffffffffffff1916149050919050565b610e4f8161158f565b610e8e576040517f08c379a0000000000000000000000000000000000000000000000000000000008152600401610e85906121be565b60405180910390fd5b50565b600033905090565b816004600083815260200190815260200160002060006101000a81548173ffffffffffffffffffffffffffffffffffffffff021916908373ffffffffffffffffffffffffffffffffffffffff160217905550808273ffffffffffffffffffffffffffffffffffffffff16610f0c8361084c565b73ffffffffffffffffffffffffffffffffffffffff167f8c5be1e5ebec7d5bd14f71427d1e84f3dd0314c0f7b2291e5b200ac8c7c3b92560405160405180910390a45050565b600080610f5e8361084c565b90508073ffffffffffffffffffffffffffffffffffffffff168473ffffffffffffffffffffffffffffffffffffffff161480610fa05750610f9f8185610d48565b5b80610fde57508373ffffffffffffffffffffffffffffffffffffffff16610fc684610589565b73ffffffffffffffffffffffffffffffffffffffff16145b91505092915050565b8273ffffffffffffffffffffffffffffffffffffffff166110078261084c565b73ffffffffffffffffffffffffffffffffffffffff161461105d576040517f08c379a0000000000000000000000000000000000000000000000000000000008152600401611054906123d4565b60405180910390fd5b600073ffffffffffffffffffffffffffffffffffffffff168273ffffffffffffffffffffffffffffffffffffffff1614156110cd576040517f08c379a00000000000000000000000000000000000000000000000000000000081526004016110c490612466565b60405180910390fd5b6110d88383836115fb565b6110e3600082610e99565b6001600360008573ffffffffffffffffffffffffffffffffffffffff1673ffffffffffffffffffffffffffffffffffffffff168152602001908152602001600020600082825461113391906124b5565b925050819055506001600360008473ffffffffffffffffffffffffffffffffffffffff1673ffffffffffffffffffffffffffffffffffffffff168152602001908152602001600020600082825461118a91906124e9565b92505081905550816002600083815260200190815260200160002060006101000a81548173ffffffffffffffffffffffffffffffffffffffff021916908373ffffffffffffffffffffffffffffffffffffffff160217905550808273ffffffffffffffffffffffffffffffffffffffff168473ffffffffffffffffffffffffffffffffffffffff167fddf252ad1be2c89b69c2b068fc378daa952ba7f163c4a11628f55a4df523b3ef60405160405180910390a4611249838383611600565b505050565b8173ffffffffffffffffffffffffffffffffffffffff168373ffffffffffffffffffffffffffffffffffffffff1614156112bd576040517f08c379a00000000000000000000000000000000000000000000000000000000081526004016112b49061258b565b60405180910390fd5b80600560008573ffffffffffffffffffffffffffffffffffffffff1673ffffffffffffffffffffffffffffffffffffffff16815260200190815260200160002060008473ffffffffffffffffffffffffffffffffffffffff1673ffffffffffffffffffffffffffffffffffffffff16815260200190815260200160002060006101000a81548160ff0219169083151502179055508173ffffffffffffffffffffffffffffffffffffffff168373ffffffffffffffffffffffffffffffffffffffff167f17307eab39ab6107e8899845ad3d59bd9653f200f220920489ca2b5937696c31836040516113ae9190611901565b60405180910390a3505050565b6113c6848484610fe7565b6113d284848484611605565b611411576040517f08c379a00000000000000000000000000000000000000000000000000000000081526004016114089061261d565b60405180910390fd5b50505050565b606060405180602001604052806000815250905090565b60606000821415611476576040518060400160405280600181526020017f3000000000000000000000000000000000000000000000000000000000000000815250905061158a565b600082905060005b600082146114a85780806114919061263d565b915050600a826114a191906126b5565b915061147e565b60008167ffffffffffffffff8111156114c4576114c3611d1a565b5b6040519080825280601f01601f1916602001820160405280156114f65781602001600182028036833780820191505090505b5090505b600085146115835760018261150f91906124b5565b9150600a8561151e91906126e6565b603061152a91906124e9565b60f81b8183815181106115405761153f612717565b5b60200101907effffffffffffffffffffffffffffffffffffffffffffffffffffffffffffff1916908160001a905350600a8561157c91906126b5565b94506114fa565b8093505050505b919050565b60008073ffffffffffffffffffffffffffffffffffffffff166002600084815260200190815260200160002060009054906101000a900473ffffffffffffffffffffffffffffffffffffffff1673ffffffffffffffffffffffffffffffffffffffff1614159050919050565b505050565b505050565b60006116268473ffffffffffffffffffffffffffffffffffffffff1661178d565b15611780578373ffffffffffffffffffffffffffffffffffffffff1663150b7a0261164f610e91565b8786866040518563ffffffff1660e01b8152600401611671949392919061279b565b6020604051808303816000875af19250505080156116ad57506040513d601f19601f820116820180604052508101906116aa91906127fc565b60015b611730573d80600081146116dd576040519150601f19603f3d011682016040523d82523d6000602084013e6116e2565b606091505b50600081511415611728576040517f08c379a000000000000000000000000000000000000000000000000000000000815260040161171f9061261d565b60405180910390fd5b805181602001fd5b63150b7a0260e01b7bffffffffffffffffffffffffffffffffffffffffffffffffffffffff1916817bffffffffffffffffffffffffffffffffffffffffffffffffffffffff191614915050611785565b600190505b949350505050565b6000808273ffffffffffffffffffffffffffffffffffffffff163b119050919050565b6000604051905090565b600080fd5b600080fd5b6000819050919050565b6117d7816117c4565b81146117e257600080fd5b50565b6000813590506117f4816117ce565b92915050565b60008060008060808587031215611814576118136117ba565b5b6000611822878288016117e5565b9450506020611833878288016117e5565b9350506040611844878288016117e5565b9250506060611855878288016117e5565b91505092959194509250565b60007fffffffff0000000000000000000000000000000000000000000000000000000082169050919050565b61189681611861565b81146118a157600080fd5b50565b6000813590506118b38161188d565b92915050565b6000602082840312156118cf576118ce6117ba565b5b60006118dd848285016118a4565b91505092915050565b60008115159050919050565b6118fb816118e6565b82525050565b600060208201905061191660008301846118f2565b92915050565b600081519050919050565b600082825260208201905092915050565b60005b8381101561195657808201518184015260208101905061193b565b83811115611965576000848401525b50505050565b6000601f19601f8301169050919050565b60006119878261191c565b6119918185611927565b93506119a1818560208601611938565b6119aa8161196b565b840191505092915050565b600060208201905081810360008301526119cf818461197c565b905092915050565b6000602082840312156119ed576119ec6117ba565b5b60006119fb848285016117e5565b91505092915050565b600073ffffffffffffffffffffffffffffffffffffffff82169050919050565b6000611a2f82611a04565b9050919050565b611a3f81611a24565b82525050565b6000602082019050611a5a6000830184611a36565b92915050565b611a6981611a24565b8114611a7457600080fd5b50565b600081359050611a8681611a60565b92915050565b60008060408385031215611aa357611aa26117ba565b5b6000611ab185828601611a77565b9250506020611ac2858286016117e5565b9150509250929050565b600080600060608486031215611ae557611ae46117ba565b5b6000611af386828701611a77565b9350506020611b0486828701611a77565b9250506040611b15868287016117e5565b9150509250925092565b600080600060608486031215611b3857611b376117ba565b5b6000611b46868287016117e5565b9350506020611b57868287016117e5565b9250506040611b68868287016117e5565b9150509250925092565b611b7b816117c4565b82525050565b6000604082019050611b966000830185611a36565b611ba36020830184611b72565b9392505050565b600060208284031215611bc057611bbf6117ba565b5b6000611bce84828501611a77565b91505092915050565b6000602082019050611bec6000830184611b72565b92915050565b611bfb816118e6565b8114611c0657600080fd5b50565b600081359050611c1881611bf2565b92915050565b60008060408385031215611c3557611c346117ba565b5b6000611c4385828601611a77565b9250506020611c5485828601611c09565b9150509250929050565b600080600080600060a08688031215611c7a57611c796117ba565b5b6000611c88888289016117e5565b9550506020611c99888289016117e5565b9450506040611caa888289016117e5565b9350506060611cbb888289016117e5565b9250506080611ccc88828901611a77565b9150509295509295909350565b6000606082019050611cee60008301866118f2565b611cfb6020830185611a36565b611d086040830184611b72565b949350505050565b600080fd5b600080fd5b7f4e487b7100000000000000000000000000000000000000000000000000000000600052604160045260246000fd5b611d528261196b565b810181811067ffffffffffffffff82111715611d7157611d70611d1a565b5b80604052505050565b6000611d846117b0565b9050611d908282611d49565b919050565b600067ffffffffffffffff821115611db057611daf611d1a565b5b611db98261196b565b9050602081019050919050565b82818337600083830152505050565b6000611de8611de384611d95565b611d7a565b905082815260208101848484011115611e0457611e03611d15565b5b611e0f848285611dc6565b509392505050565b600082601f830112611e2c57611e2b611d10565b5b8135611e3c848260208601611dd5565b91505092915050565b60008060008060808587031215611e5f57611e5e6117ba565b5b6000611e6d87828801611a77565b9450506020611e7e87828801611a77565b9350506040611e8f878288016117e5565b925050606085013567ffffffffffffffff811115611eb057611eaf6117bf565b5b611ebc87828801611e17565b91505092959194509250565b60008060408385031215611edf57611ede6117ba565b5b6000611eed85828601611a77565b9250506020611efe85828601611a77565b9150509250929050565b600060a082019050611f1d6000830188611b72565b611f2a6020830187611b72565b611f376040830186611b72565b611f446060830185611b72565b611f516080830184611a36565b9695505050505050565b7f4e487b7100000000000000000000000000000000000000000000000000000000600052602260045260246000fd5b60006002820490506001821680611fa257607f821691505b60208210811415611fb657611fb5611f5b565b5b50919050565b7f4552433732313a20617070726f76616c20746f2063757272656e74206f776e6560008201527f7200000000000000000000000000000000000000000000000000000000000000602082015250565b6000612018602183611927565b915061202382611fbc565b604082019050919050565b600060208201905081810360008301526120478161200b565b9050919050565b7f4552433732313a20617070726f76652063616c6c6572206973206e6f7420746f60008201527f6b656e206f776e6572206e6f7220617070726f76656420666f7220616c6c0000602082015250565b60006120aa603e83611927565b91506120b58261204e565b604082019050919050565b600060208201905081810360008301526120d98161209d565b9050919050565b7f4552433732313a2063616c6c6572206973206e6f7420746f6b656e206f776e6560008201527f72206e6f7220617070726f766564000000000000000000000000000000000000602082015250565b600061213c602e83611927565b9150612147826120e0565b604082019050919050565b6000602082019050818103600083015261216b8161212f565b9050919050565b7f4552433732313a20696e76616c696420746f6b656e2049440000000000000000600082015250565b60006121a8601883611927565b91506121b382612172565b602082019050919050565b600060208201905081810360008301526121d78161219b565b9050919050565b7f4552433732313a2061646472657373207a65726f206973206e6f74206120766160008201527f6c6964206f776e65720000000000000000000000000000000000000000000000602082015250565b600061223a602983611927565b9150612245826121de565b604082019050919050565b600060208201905081810360008301526122698161222d565b9050919050565b7f4c696768743a2074686973204e46542068617320616c7265616479206265656e60008201527f206d696e74656400000000000000000000000000000000000000000000000000602082015250565b60006122cc602783611927565b91506122d782612270565b604082019050919050565b600060208201905081810360008301526122fb816122bf565b9050919050565b600081905092915050565b60006123188261191c565b6123228185612302565b9350612332818560208601611938565b80840191505092915050565b600061234a828561230d565b9150612356828461230d565b91508190509392505050565b7f4552433732313a207472616e736665722066726f6d20696e636f72726563742060008201527f6f776e6572000000000000000000000000000000000000000000000000000000602082015250565b60006123be602583611927565b91506123c982612362565b604082019050919050565b600060208201905081810360008301526123ed816123b1565b9050919050565b7f4552433732313a207472616e7366657220746f20746865207a65726f2061646460008201527f7265737300000000000000000000000000000000000000000000000000000000602082015250565b6000612450602483611927565b915061245b826123f4565b604082019050919050565b6000602082019050818103600083015261247f81612443565b9050919050565b7f4e487b7100000000000000000000000000000000000000000000000000000000600052601160045260246000fd5b60006124c0826117c4565b91506124cb836117c4565b9250828210156124de576124dd612486565b5b828203905092915050565b60006124f4826117c4565b91506124ff836117c4565b9250827fffffffffffffffffffffffffffffffffffffffffffffffffffffffffffffffff0382111561253457612533612486565b5b828201905092915050565b7f4552433732313a20617070726f766520746f2063616c6c657200000000000000600082015250565b6000612575601983611927565b91506125808261253f565b602082019050919050565b600060208201905081810360008301526125a481612568565b9050919050565b7f4552433732313a207472616e7366657220746f206e6f6e20455243373231526560008201527f63656976657220696d706c656d656e7465720000000000000000000000000000602082015250565b6000612607603283611927565b9150612612826125ab565b604082019050919050565b60006020820190508181036000830152612636816125fa565b9050919050565b6000612648826117c4565b91507fffffffffffffffffffffffffffffffffffffffffffffffffffffffffffffffff82141561267b5761267a612486565b5b600182019050919050565b7f4e487b7100000000000000000000000000000000000000000000000000000000600052601260045260246000fd5b60006126c0826117c4565b91506126cb836117c4565b9250826126db576126da612686565b5b828204905092915050565b60006126f1826117c4565b91506126fc836117c4565b92508261270c5761270b612686565b5b828206905092915050565b7f4e487b7100000000000000000000000000000000000000000000000000000000600052603260045260246000fd5b600081519050919050565b600082825260208201905092915050565b600061276d82612746565b6127778185612751565b9350612787818560208601611938565b6127908161196b565b840191505092915050565b60006080820190506127b06000830187611a36565b6127bd6020830186611a36565b6127ca6040830185611b72565b81810360608301526127dc8184612762565b905095945050505050565b6000815190506127f68161188d565b92915050565b600060208284031215612812576128116117ba565b5b6000612820848285016127e7565b9150509291505056fea2646970667358221220116f35029ceb6266c371f390c082cc8ab5dbdf6128906919b7843a0bd0c167b964736f6c634300080b0033",
  "immutableReferences": {},
  "source": "// SPDX-License-Identifier: MIT\npragma solidity >=0.4.22 <0.9.0;\nimport \"@openzeppelin/contracts/token/ERC721/ERC721.sol\";\n\ncontract Light is ERC721 {\n  constructor() ERC721(\"Light\", \"LT\") {\n  }\n\n  // Mapping\n  struct LightInfo { \n    bool minted;\n    address owner;\n    uint color;\n  }\n  mapping(uint => mapping(uint => mapping(uint => LightInfo))) public light;\n  function getLightInfo(uint _x, uint _y, uint _z) public view returns (address owner, uint color) {\n    LightInfo memory info = light[_x][_y][_z];\n    address _owner = info.owner;\n    uint _color = info.color;\n    return (_owner, _color);\n  }\n\n  // Colors\n  event UpdatedColor(uint x, uint y, uint z,uint color, address updater);\n  function setColor(uint _x, uint _y, uint _z,uint _color) public {\n    light[_x][_y][_z].color = _color;\n    emit UpdatedColor(_x, _y, _z, _color, msg.sender);\n  }\n\n  // Minting\n  event Minted(uint x, uint y, uint z, uint color, address minter);\n  function mint(uint _x, uint _y, uint _z, uint _color, address _owner) public {\n    require(light[_x][_y][_z].minted == false, \"Light: this NFT has already been minted\");\n    light[_x][_y][_z] = LightInfo(true, _owner, _color);\n    emit Minted(_x, _y, _z, _color, _owner);\n  }\n\n}\n",
  "sourcePath": "/Users/joshuamartin/22/lights/evm/contracts/Light.sol",
  "compiler": {
    "name": "solc",
    "version": "0.8.11+commit.d7f03943.Emscripten.clang"
  },
  "schemaVersion": "3.4.4",
  "updatedAt": "2022-07-15T22:09:30.966Z",
  "networkType": "ethereum",
  "devdoc": {
    "kind": "dev",
    "methods": {
      "approve(address,uint256)": {
        "details": "See {IERC721-approve}."
      },
      "balanceOf(address)": {
        "details": "See {IERC721-balanceOf}."
      },
      "getApproved(uint256)": {
        "details": "See {IERC721-getApproved}."
      },
      "isApprovedForAll(address,address)": {
        "details": "See {IERC721-isApprovedForAll}."
      },
      "name()": {
        "details": "See {IERC721Metadata-name}."
      },
      "ownerOf(uint256)": {
        "details": "See {IERC721-ownerOf}."
      },
      "safeTransferFrom(address,address,uint256)": {
        "details": "See {IERC721-safeTransferFrom}."
      },
      "safeTransferFrom(address,address,uint256,bytes)": {
        "details": "See {IERC721-safeTransferFrom}."
      },
      "setApprovalForAll(address,bool)": {
        "details": "See {IERC721-setApprovalForAll}."
      },
      "supportsInterface(bytes4)": {
        "details": "See {IERC165-supportsInterface}."
      },
      "symbol()": {
        "details": "See {IERC721Metadata-symbol}."
      },
      "tokenURI(uint256)": {
        "details": "See {IERC721Metadata-tokenURI}."
      },
      "transferFrom(address,address,uint256)": {
        "details": "See {IERC721-transferFrom}."
      }
    },
    "version": 1
  },
  "userdoc": {
    "kind": "user",
    "methods": {},
    "version": 1
  }
}