{
  "contractName": "Fireaf",
  "abi": [
    {
      "inputs": [],
      "stateMutability": "nonpayable",
      "type": "constructor"
    },
    {
      "inputs": [],
      "name": "nftMaxCount",
      "outputs": [
        {
          "internalType": "uint256",
          "name": "",
          "type": "uint256"
        }
      ],
      "stateMutability": "view",
      "type": "function",
      "constant": true
    },
    {
      "inputs": [],
      "name": "owner",
      "outputs": [
        {
          "internalType": "address payable",
          "name": "",
          "type": "address"
        }
      ],
      "stateMutability": "view",
      "type": "function",
      "constant": true
    },
    {
      "inputs": [],
      "name": "price",
      "outputs": [
        {
          "internalType": "uint256",
          "name": "",
          "type": "uint256"
        }
      ],
      "stateMutability": "view",
      "type": "function",
      "constant": true
    },
    {
      "inputs": [],
      "name": "rentDuration",
      "outputs": [
        {
          "internalType": "uint256",
          "name": "",
          "type": "uint256"
        }
      ],
      "stateMutability": "view",
      "type": "function",
      "constant": true
    },
    {
      "inputs": [],
      "name": "rentalPlatformFee",
      "outputs": [
        {
          "internalType": "uint256",
          "name": "",
          "type": "uint256"
        }
      ],
      "stateMutability": "view",
      "type": "function",
      "constant": true
    },
    {
      "inputs": [],
      "name": "rentalPrice",
      "outputs": [
        {
          "internalType": "uint256",
          "name": "",
          "type": "uint256"
        }
      ],
      "stateMutability": "view",
      "type": "function",
      "constant": true
    },
    {
      "inputs": [],
      "name": "renterCooldown",
      "outputs": [
        {
          "internalType": "uint256",
          "name": "",
          "type": "uint256"
        }
      ],
      "stateMutability": "view",
      "type": "function",
      "constant": true
    },
    {
      "inputs": [
        {
          "internalType": "uint256",
          "name": "_price",
          "type": "uint256"
        }
      ],
      "name": "setPrice",
      "outputs": [],
      "stateMutability": "nonpayable",
      "type": "function"
    },
    {
      "inputs": [
        {
          "internalType": "uint256",
          "name": "_rentalPrice",
          "type": "uint256"
        }
      ],
      "name": "setRentalPrice",
      "outputs": [],
      "stateMutability": "nonpayable",
      "type": "function"
    },
    {
      "inputs": [
        {
          "internalType": "uint256",
          "name": "_rentalPlatformFee",
          "type": "uint256"
        }
      ],
      "name": "setRentalPlatformFee",
      "outputs": [],
      "stateMutability": "nonpayable",
      "type": "function"
    },
    {
      "inputs": [
        {
          "internalType": "uint256",
          "name": "_rentDuration",
          "type": "uint256"
        }
      ],
      "name": "setRentDuration",
      "outputs": [],
      "stateMutability": "nonpayable",
      "type": "function"
    },
    {
      "inputs": [
        {
          "internalType": "uint256",
          "name": "_renterCooldown",
          "type": "uint256"
        }
      ],
      "name": "setRenterCooldown",
      "outputs": [],
      "stateMutability": "nonpayable",
      "type": "function"
    },
    {
      "inputs": [
        {
          "internalType": "address payable",
          "name": "_owner",
          "type": "address"
        }
      ],
      "name": "setOwner",
      "outputs": [],
      "stateMutability": "nonpayable",
      "type": "function"
    },
    {
      "inputs": [
        {
          "internalType": "uint256",
          "name": "_nftMaxCount",
          "type": "uint256"
        }
      ],
      "name": "setNFTMaxCount",
      "outputs": [],
      "stateMutability": "nonpayable",
      "type": "function"
    },
    {
      "inputs": [
        {
          "internalType": "uint256",
          "name": "_color",
          "type": "uint256"
        },
        {
          "internalType": "uint256",
          "name": "_id",
          "type": "uint256"
        }
      ],
      "name": "rent",
      "outputs": [],
      "stateMutability": "payable",
      "type": "function",
      "payable": true
    },
    {
      "inputs": [
        {
          "internalType": "uint256",
          "name": "_color",
          "type": "uint256"
        }
      ],
      "name": "mint",
      "outputs": [],
      "stateMutability": "payable",
      "type": "function",
      "payable": true
    },
    {
      "inputs": [],
      "name": "withdraw",
      "outputs": [],
      "stateMutability": "nonpayable",
      "type": "function"
    },
    {
      "inputs": [],
      "name": "platformWidthdraw",
      "outputs": [],
      "stateMutability": "nonpayable",
      "type": "function"
    },
    {
      "inputs": [],
      "name": "emergencyWidthdraw",
      "outputs": [],
      "stateMutability": "nonpayable",
      "type": "function"
    }
  ],
  "bytecode": "0x608060405234801561001057600080fd5b50336000806101000a81548173ffffffffffffffffffffffffffffffffffffffff021916908373ffffffffffffffffffffffffffffffffffffffff160217905550671bc16d674ec8000060018190555066470de4df820000600281905550662386f26fc10000600381905550610258600481905550610258600581905550620f42406006819055506000600b819055506000600d819055506114e1806100b76000396000f3fe6080604052600436106101145760003560e01c80638da5cb5b116100a0578063cae7382211610064578063cae7382214610321578063d532fe971461034c578063e1a8ba6814610377578063e1f8082c146103a0578063fee29750146103b757610114565b80638da5cb5b1461026f57806391b7f5ed1461029a578063a035b1fe146102c3578063a0712d68146102ee578063c2a9e7fd1461030a57610114565b806339b09337116100e757806339b09337146101bf5780633ccfd60b146101e85780633d4094e5146101ff5780636c28c20314610228578063783a112b1461025357610114565b806309b6b47e1461011957806313af4035146101425780631c43cd041461016b5780631d4c91b314610196575b600080fd5b34801561012557600080fd5b50610140600480360381019061013b9190610f55565b6103e2565b005b34801561014e57600080fd5b5061016960048036038101906101649190610fe0565b61047a565b005b34801561017757600080fd5b5061018061054b565b60405161018d919061101c565b60405180910390f35b3480156101a257600080fd5b506101bd60048036038101906101b89190610f55565b610551565b005b3480156101cb57600080fd5b506101e660048036038101906101e19190610f55565b6105e9565b005b3480156101f457600080fd5b506101fd610681565b005b34801561020b57600080fd5b5061022660048036038101906102219190610f55565b6107d6565b005b34801561023457600080fd5b5061023d61086e565b60405161024a919061101c565b60405180910390f35b61026d60048036038101906102689190611037565b610874565b005b34801561027b57600080fd5b50610284610ad1565b6040516102919190611086565b60405180910390f35b3480156102a657600080fd5b506102c160048036038101906102bc9190610f55565b610af5565b005b3480156102cf57600080fd5b506102d8610b8d565b6040516102e5919061101c565b60405180910390f35b61030860048036038101906103039190610f55565b610b93565b005b34801561031657600080fd5b5061031f610ca8565b005b34801561032d57600080fd5b50610336610d6f565b604051610343919061101c565b60405180910390f35b34801561035857600080fd5b50610361610d75565b60405161036e919061101c565b60405180910390f35b34801561038357600080fd5b5061039e60048036038101906103999190610f55565b610d7b565b005b3480156103ac57600080fd5b506103b5610e13565b005b3480156103c357600080fd5b506103cc610f14565b6040516103d9919061101c565b60405180910390f35b60008054906101000a900473ffffffffffffffffffffffffffffffffffffffff1673ffffffffffffffffffffffffffffffffffffffff163373ffffffffffffffffffffffffffffffffffffffff1614610470576040517f08c379a0000000000000000000000000000000000000000000000000000000008152600401610467906110fe565b60405180910390fd5b8060068190555050565b60008054906101000a900473ffffffffffffffffffffffffffffffffffffffff1673ffffffffffffffffffffffffffffffffffffffff163373ffffffffffffffffffffffffffffffffffffffff1614610508576040517f08c379a00000000000000000000000000000000000000000000000000000000081526004016104ff906110fe565b60405180910390fd5b806000806101000a81548173ffffffffffffffffffffffffffffffffffffffff021916908373ffffffffffffffffffffffffffffffffffffffff16021790555050565b60025481565b60008054906101000a900473ffffffffffffffffffffffffffffffffffffffff1673ffffffffffffffffffffffffffffffffffffffff163373ffffffffffffffffffffffffffffffffffffffff16146105df576040517f08c379a00000000000000000000000000000000000000000000000000000000081526004016105d6906110fe565b60405180910390fd5b8060048190555050565b60008054906101000a900473ffffffffffffffffffffffffffffffffffffffff1673ffffffffffffffffffffffffffffffffffffffff163373ffffffffffffffffffffffffffffffffffffffff1614610677576040517f08c379a000000000000000000000000000000000000000000000000000000000815260040161066e906110fe565b60405180910390fd5b8060038190555050565b6000600c60003373ffffffffffffffffffffffffffffffffffffffff1673ffffffffffffffffffffffffffffffffffffffff1681526020019081526020016000205411610703576040517f08c379a00000000000000000000000000000000000000000000000000000000081526004016106fa90611190565b60405180910390fd5b6000600c60003373ffffffffffffffffffffffffffffffffffffffff1673ffffffffffffffffffffffffffffffffffffffff1681526020019081526020016000205490506000600c60003373ffffffffffffffffffffffffffffffffffffffff1673ffffffffffffffffffffffffffffffffffffffff168152602001908152602001600020819055503373ffffffffffffffffffffffffffffffffffffffff166108fc829081150290604051600060405180830381858888f193505050501580156107d2573d6000803e3d6000fd5b5050565b60008054906101000a900473ffffffffffffffffffffffffffffffffffffffff1673ffffffffffffffffffffffffffffffffffffffff163373ffffffffffffffffffffffffffffffffffffffff1614610864576040517f08c379a000000000000000000000000000000000000000000000000000000000815260040161085b906110fe565b60405180910390fd5b8060028190555050565b60055481565b60025434116108b8576040517f08c379a00000000000000000000000000000000000000000000000000000000081526004016108af906111fc565b60405180910390fd5b60045460096000838152602001908152602001600020546108d9919061124b565b421161091a576040517f08c379a000000000000000000000000000000000000000000000000000000000815260040161091190611313565b60405180910390fd5b600a60003373ffffffffffffffffffffffffffffffffffffffff1673ffffffffffffffffffffffffffffffffffffffff16815260200190815260200160002054421161099b576040517f08c379a00000000000000000000000000000000000000000000000000000000081526004016109929061137f565b60405180910390fd5b600454426109a9919061124b565b600a60003373ffffffffffffffffffffffffffffffffffffffff1673ffffffffffffffffffffffffffffffffffffffff16815260200190815260200160002081905550426009600083815260200190815260200160002081905550816007600083815260200190815260200160002081905550600354600d6000828254610a30919061124b565b9250508190555060035434610a45919061139f565b600c60006008600085815260200190815260200160002060009054906101000a900473ffffffffffffffffffffffffffffffffffffffff1673ffffffffffffffffffffffffffffffffffffffff1673ffffffffffffffffffffffffffffffffffffffff1681526020019081526020016000206000828254610ac6919061124b565b925050819055505050565b60008054906101000a900473ffffffffffffffffffffffffffffffffffffffff1681565b60008054906101000a900473ffffffffffffffffffffffffffffffffffffffff1673ffffffffffffffffffffffffffffffffffffffff163373ffffffffffffffffffffffffffffffffffffffff1614610b83576040517f08c379a0000000000000000000000000000000000000000000000000000000008152600401610b7a906110fe565b60405180910390fd5b8060018190555050565b60015481565b6001543411610bd7576040517f08c379a0000000000000000000000000000000000000000000000000000000008152600401610bce9061141f565b60405180910390fd5b600654600b5410610c1d576040517f08c379a0000000000000000000000000000000000000000000000000000000008152600401610c149061148b565b60405180910390fd5b8060076000600b548152602001908152602001600020819055503360086000600b54815260200190815260200160002060006101000a81548173ffffffffffffffffffffffffffffffffffffffff021916908373ffffffffffffffffffffffffffffffffffffffff1602179055506001600b6000828254610c9e919061124b565b9250508190555050565b60008054906101000a900473ffffffffffffffffffffffffffffffffffffffff1673ffffffffffffffffffffffffffffffffffffffff163373ffffffffffffffffffffffffffffffffffffffff1614610d36576040517f08c379a0000000000000000000000000000000000000000000000000000000008152600401610d2d906110fe565b60405180910390fd5b60008054906101000a900473ffffffffffffffffffffffffffffffffffffffff1673ffffffffffffffffffffffffffffffffffffffff16ff5b60035481565b60065481565b60008054906101000a900473ffffffffffffffffffffffffffffffffffffffff1673ffffffffffffffffffffffffffffffffffffffff163373ffffffffffffffffffffffffffffffffffffffff1614610e09576040517f08c379a0000000000000000000000000000000000000000000000000000000008152600401610e00906110fe565b60405180910390fd5b8060058190555050565b60008054906101000a900473ffffffffffffffffffffffffffffffffffffffff1673ffffffffffffffffffffffffffffffffffffffff163373ffffffffffffffffffffffffffffffffffffffff1614610ea1576040517f08c379a0000000000000000000000000000000000000000000000000000000008152600401610e98906110fe565b60405180910390fd5b60008054906101000a900473ffffffffffffffffffffffffffffffffffffffff1673ffffffffffffffffffffffffffffffffffffffff166108fc600d549081150290604051600060405180830381858888f19350505050158015610f09573d6000803e3d6000fd5b506000600d81905550565b60045481565b600080fd5b6000819050919050565b610f3281610f1f565b8114610f3d57600080fd5b50565b600081359050610f4f81610f29565b92915050565b600060208284031215610f6b57610f6a610f1a565b5b6000610f7984828501610f40565b91505092915050565b600073ffffffffffffffffffffffffffffffffffffffff82169050919050565b6000610fad82610f82565b9050919050565b610fbd81610fa2565b8114610fc857600080fd5b50565b600081359050610fda81610fb4565b92915050565b600060208284031215610ff657610ff5610f1a565b5b600061100484828501610fcb565b91505092915050565b61101681610f1f565b82525050565b6000602082019050611031600083018461100d565b92915050565b6000806040838503121561104e5761104d610f1a565b5b600061105c85828601610f40565b925050602061106d85828601610f40565b9150509250929050565b61108081610fa2565b82525050565b600060208201905061109b6000830184611077565b92915050565b600082825260208201905092915050565b7f4669726561663a206f6e6c79206f776e65720000000000000000000000000000600082015250565b60006110e86012836110a1565b91506110f3826110b2565b602082019050919050565b60006020820190508181036000830152611117816110db565b9050919050565b7f4669726561663a20796f752061696e277420676f74206e6f206d6f6e6579206260008201527f7564646400000000000000000000000000000000000000000000000000000000602082015250565b600061117a6024836110a1565b91506111858261111e565b604082019050919050565b600060208201905081810360008301526111a98161116d565b9050919050565b7f4669726561663a2073656e64206d6f7265206d6f6e657920796120666f6f6c00600082015250565b60006111e6601f836110a1565b91506111f1826111b0565b602082019050919050565b60006020820190508181036000830152611215816111d9565b9050919050565b7f4e487b7100000000000000000000000000000000000000000000000000000000600052601160045260246000fd5b600061125682610f1f565b915061126183610f1f565b9250827fffffffffffffffffffffffffffffffffffffffffffffffffffffffffffffffff038211156112965761129561121c565b5b828201905092915050565b7f4669726561663a20746861742773206120737069637920706978656c2074686560008201527f7265206275640000000000000000000000000000000000000000000000000000602082015250565b60006112fd6026836110a1565b9150611308826112a1565b604082019050919050565b6000602082019050818103600083015261132c816112f0565b9050919050565b7f4669726561663a207568682e206d6179626520646f206c6573732e0000000000600082015250565b6000611369601b836110a1565b915061137482611333565b602082019050919050565b600060208201905081810360008301526113988161135c565b9050919050565b60006113aa82610f1f565b91506113b583610f1f565b9250828210156113c8576113c761121c565b5b828203905092915050565b7f4669726561663a2073656e64206d6f7265206d6f6e657920666f6f6c00000000600082015250565b6000611409601c836110a1565b9150611414826113d3565b602082019050919050565b60006020820190508181036000830152611438816113fc565b9050919050565b7f4669726561663a20736f6c64206f757420627564000000000000000000000000600082015250565b60006114756014836110a1565b91506114808261143f565b602082019050919050565b600060208201905081810360008301526114a481611468565b905091905056fea2646970667358221220bf17b8312b6b6b4d8887c8feb46d3ec3a8dc8edaa088f9153a1b7767d2b3ae0f64736f6c634300080b0033",
  "immutableReferences": {},
  "source": "// SPDX-License-Identifier: MIT\npragma solidity >=0.4.22 <0.9.0;\n\ncontract Fireaf {\n\n  address payable public owner;\n  uint public price;\n  uint public rentalPrice;\n  uint public rentalPlatformFee;\n  uint public rentDuration;\n  uint public renterCooldown;\n  uint public nftMaxCount;\n\n  mapping (uint => uint) idToColor;\n  mapping (uint => address payable) idToOwner;\n  mapping (uint => uint) idToRentedOn; // TODO: make sure this works\n  mapping (address => uint) renterToCooldown;\n  uint idCount;\n  mapping (address => uint) ownerToCashh;\n  uint platformCassh;\n  constructor() {\n    owner = payable(msg.sender);\n    price = 2000000000000000000;\n    rentalPrice  = 20000000000000000;\n    rentalPlatformFee = 10000000000000000;\n    rentDuration = 10 minutes;\n    renterCooldown = 10 minutes;\n    nftMaxCount = 1000000;\n    idCount = 0;\n    platformCassh = 0;\n  }\n\n  modifier onlyOwner() {\n    require(msg.sender == owner, \"Fireaf: only owner\");\n    _;\n  }\n\n  function setPrice(uint _price) onlyOwner external { price = _price; }\n  function setRentalPrice(uint _rentalPrice) onlyOwner external { rentalPrice = _rentalPrice; }\n  function setRentalPlatformFee(uint _rentalPlatformFee) onlyOwner external { rentalPlatformFee = _rentalPlatformFee; }\n  function setRentDuration(uint _rentDuration) onlyOwner external { rentDuration = _rentDuration; }\n  function setRenterCooldown(uint _renterCooldown) onlyOwner external { renterCooldown = _renterCooldown;}\n  function setOwner(address payable _owner) onlyOwner external { owner = _owner; }\n  function setNFTMaxCount(uint _nftMaxCount) onlyOwner external { nftMaxCount = _nftMaxCount;}\n\n  function rent(uint _color, uint _id) external payable {\n    require(msg.value > rentalPrice, \"Fireaf: send more money ya fool\");\n    require(block.timestamp > idToRentedOn[_id] + rentDuration, \"Fireaf: that's a spicy pixel there bud\"); // TODO: check these? What about init to 0?\n    require(block.timestamp > renterToCooldown[msg.sender], \"Fireaf: uhh. maybe do less.\");\n    \n    renterToCooldown[msg.sender] = block.timestamp + rentDuration;\n    idToRentedOn[_id] = block.timestamp;\n    idToColor[_id] = _color;\n\n    platformCassh += rentalPlatformFee;\n    ownerToCashh[idToOwner[_id]] += msg.value - rentalPlatformFee;\n  }\n\n  function mint(uint _color) external payable {\n    require(msg.value > price, \"Fireaf: send more money fool\");\n    require(idCount < nftMaxCount, \"Fireaf: sold out bud\");\n\n    idToColor[idCount] = _color;\n    idToOwner[idCount] = payable(msg.sender);\n\n    idCount += 1;\n  }\n\n  function withdraw() external {\n    require(ownerToCashh[msg.sender] > 0, \"Fireaf: you ain't got no money buddd\");\n    uint casshhboi = ownerToCashh[msg.sender];\n    ownerToCashh[msg.sender] = 0;\n    payable(msg.sender).transfer(casshhboi);\n  }\n\n  function platformWidthdraw() onlyOwner external {\n    owner.transfer(platformCassh);\n    platformCassh = 0;\n  }\n\n  function emergencyWidthdraw() onlyOwner external {\n    selfdestruct(owner); // TODO: hardcode safe address\n  }\n\n}\n",
  "sourcePath": "/Users/joshuamartin/22/pixel/evm/contracts/Fireaf.sol",
  "compiler": {
    "name": "solc",
    "version": "0.8.11+commit.d7f03943.Emscripten.clang"
  },
  "schemaVersion": "3.4.4",
  "updatedAt": "2022-08-20T21:58:48.977Z",
  "networkType": "ethereum",
  "devdoc": {
    "kind": "dev",
    "methods": {},
    "version": 1
  },
  "userdoc": {
    "kind": "user",
    "methods": {},
    "version": 1
  }
}