{
  "contractName": "Pixel",
  "abi": [
    {
      "inputs": [
        {
          "internalType": "address",
          "name": "_owner",
          "type": "address"
        }
      ],
      "stateMutability": "nonpayable",
      "type": "constructor"
    },
    {
      "inputs": [],
      "name": "mintableAmount",
      "outputs": [
        {
          "internalType": "int256",
          "name": "",
          "type": "int256"
        }
      ],
      "stateMutability": "view",
      "type": "function"
    },
    {
      "inputs": [],
      "name": "owner",
      "outputs": [
        {
          "internalType": "address",
          "name": "",
          "type": "address"
        }
      ],
      "stateMutability": "view",
      "type": "function"
    },
    {
      "inputs": [
        {
          "internalType": "int256",
          "name": "",
          "type": "int256"
        },
        {
          "internalType": "int256",
          "name": "",
          "type": "int256"
        },
        {
          "internalType": "int256",
          "name": "",
          "type": "int256"
        }
      ],
      "name": "pixels",
      "outputs": [
        {
          "internalType": "address",
          "name": "owner",
          "type": "address"
        },
        {
          "internalType": "uint256",
          "name": "color",
          "type": "uint256"
        },
        {
          "internalType": "string",
          "name": "message",
          "type": "string"
        },
        {
          "internalType": "string",
          "name": "image",
          "type": "string"
        },
        {
          "internalType": "string",
          "name": "url",
          "type": "string"
        }
      ],
      "stateMutability": "view",
      "type": "function"
    },
    {
      "inputs": [
        {
          "internalType": "int256",
          "name": "_mintableAmount",
          "type": "int256"
        }
      ],
      "name": "setMintable",
      "outputs": [],
      "stateMutability": "nonpayable",
      "type": "function"
    },
    {
      "inputs": [
        {
          "internalType": "int256",
          "name": "x",
          "type": "int256"
        },
        {
          "internalType": "int256",
          "name": "y",
          "type": "int256"
        },
        {
          "internalType": "int256",
          "name": "z",
          "type": "int256"
        },
        {
          "internalType": "uint256",
          "name": "_color",
          "type": "uint256"
        },
        {
          "internalType": "string",
          "name": "_message",
          "type": "string"
        },
        {
          "internalType": "string",
          "name": "_image",
          "type": "string"
        },
        {
          "internalType": "string",
          "name": "_url",
          "type": "string"
        }
      ],
      "name": "mint",
      "outputs": [],
      "stateMutability": "nonpayable",
      "type": "function"
    }
  ],
  "bytecode": "0x608060405234801561001057600080fd5b50604051610dff380380610dff833981810160405281019061003291906100db565b806000806101000a81548173ffffffffffffffffffffffffffffffffffffffff021916908373ffffffffffffffffffffffffffffffffffffffff16021790555050610108565b600080fd5b600073ffffffffffffffffffffffffffffffffffffffff82169050919050565b60006100a88261007d565b9050919050565b6100b88161009d565b81146100c357600080fd5b50565b6000815190506100d5816100af565b92915050565b6000602082840312156100f1576100f0610078565b5b60006100ff848285016100c6565b91505092915050565b610ce8806101176000396000f3fe608060405234801561001057600080fd5b50600436106100575760003560e01c80633b6f7fc11461005c5780636c4cecdb146100785780637bdb46a8146100ac5780638da5cb5b146100c8578063ae3baf4d146100e6575b600080fd5b6100766004803603810190610071919061063f565b610104565b005b610092600480360381019061008d919061066c565b61019c565b6040516100a39594939291906107b2565b60405180910390f35b6100c660048036038101906100c1919061097b565b6103a4565b005b6100d0610528565b6040516100dd9190610a71565b60405180910390f35b6100ee61054c565b6040516100fb9190610a9b565b60405180910390f35b60008054906101000a900473ffffffffffffffffffffffffffffffffffffffff1673ffffffffffffffffffffffffffffffffffffffff163373ffffffffffffffffffffffffffffffffffffffff1614610192576040517f08c379a000000000000000000000000000000000000000000000000000000000815260040161018990610b02565b60405180910390fd5b8060018190555050565b600260205282600052604060002060205281600052604060002060205280600052604060002060009250925050508060000160009054906101000a900473ffffffffffffffffffffffffffffffffffffffff169080600101549080600201805461020590610b51565b80601f016020809104026020016040519081016040528092919081815260200182805461023190610b51565b801561027e5780601f106102535761010080835404028352916020019161027e565b820191906000526020600020905b81548152906001019060200180831161026157829003601f168201915b50505050509080600301805461029390610b51565b80601f01602080910402602001604051908101604052809291908181526020018280546102bf90610b51565b801561030c5780601f106102e15761010080835404028352916020019161030c565b820191906000526020600020905b8154815290600101906020018083116102ef57829003601f168201915b50505050509080600401805461032190610b51565b80601f016020809104026020016040519081016040528092919081815260200182805461034d90610b51565b801561039a5780601f1061036f5761010080835404028352916020019161039a565b820191906000526020600020905b81548152906001019060200180831161037d57829003601f168201915b5050505050905085565b6000600154136103e9576040517f08c379a00000000000000000000000000000000000000000000000000000000081526004016103e090610bcf565b60405180910390fd5b60018060008282546103fb9190610c1e565b925050819055506040518060a001604052803373ffffffffffffffffffffffffffffffffffffffff16815260200185815260200184815260200183815260200182815250600260008981526020019081526020016000206000888152602001908152602001600020600087815260200190815260200160002060008201518160000160006101000a81548173ffffffffffffffffffffffffffffffffffffffff021916908373ffffffffffffffffffffffffffffffffffffffff1602179055506020820151816001015560408201518160020190805190602001906104e1929190610552565b5060608201518160030190805190602001906104fe929190610552565b50608082015181600401908051906020019061051b929190610552565b5090505050505050505050565b60008054906101000a900473ffffffffffffffffffffffffffffffffffffffff1681565b60015481565b82805461055e90610b51565b90600052602060002090601f01602090048101928261058057600085556105c7565b82601f1061059957805160ff19168380011785556105c7565b828001600101855582156105c7579182015b828111156105c65782518255916020019190600101906105ab565b5b5090506105d491906105d8565b5090565b5b808211156105f15760008160009055506001016105d9565b5090565b6000604051905090565b600080fd5b600080fd5b6000819050919050565b61061c81610609565b811461062757600080fd5b50565b60008135905061063981610613565b92915050565b600060208284031215610655576106546105ff565b5b60006106638482850161062a565b91505092915050565b600080600060608486031215610685576106846105ff565b5b60006106938682870161062a565b93505060206106a48682870161062a565b92505060406106b58682870161062a565b9150509250925092565b600073ffffffffffffffffffffffffffffffffffffffff82169050919050565b60006106ea826106bf565b9050919050565b6106fa816106df565b82525050565b6000819050919050565b61071381610700565b82525050565b600081519050919050565b600082825260208201905092915050565b60005b83811015610753578082015181840152602081019050610738565b83811115610762576000848401525b50505050565b6000601f19601f8301169050919050565b600061078482610719565b61078e8185610724565b935061079e818560208601610735565b6107a781610768565b840191505092915050565b600060a0820190506107c760008301886106f1565b6107d4602083018761070a565b81810360408301526107e68186610779565b905081810360608301526107fa8185610779565b9050818103608083015261080e8184610779565b90509695505050505050565b61082381610700565b811461082e57600080fd5b50565b6000813590506108408161081a565b92915050565b600080fd5b600080fd5b7f4e487b7100000000000000000000000000000000000000000000000000000000600052604160045260246000fd5b61088882610768565b810181811067ffffffffffffffff821117156108a7576108a6610850565b5b80604052505050565b60006108ba6105f5565b90506108c6828261087f565b919050565b600067ffffffffffffffff8211156108e6576108e5610850565b5b6108ef82610768565b9050602081019050919050565b82818337600083830152505050565b600061091e610919846108cb565b6108b0565b90508281526020810184848401111561093a5761093961084b565b5b6109458482856108fc565b509392505050565b600082601f83011261096257610961610846565b5b813561097284826020860161090b565b91505092915050565b600080600080600080600060e0888a03121561099a576109996105ff565b5b60006109a88a828b0161062a565b97505060206109b98a828b0161062a565b96505060406109ca8a828b0161062a565b95505060606109db8a828b01610831565b945050608088013567ffffffffffffffff8111156109fc576109fb610604565b5b610a088a828b0161094d565b93505060a088013567ffffffffffffffff811115610a2957610a28610604565b5b610a358a828b0161094d565b92505060c088013567ffffffffffffffff811115610a5657610a55610604565b5b610a628a828b0161094d565b91505092959891949750929550565b6000602082019050610a8660008301846106f1565b92915050565b610a9581610609565b82525050565b6000602082019050610ab06000830184610a8c565b92915050565b7f506978656c3a20796f75277265206e6f7420746865206f776e65720000000000600082015250565b6000610aec601b83610724565b9150610af782610ab6565b602082019050919050565b60006020820190508181036000830152610b1b81610adf565b9050919050565b7f4e487b7100000000000000000000000000000000000000000000000000000000600052602260045260246000fd5b60006002820490506001821680610b6957607f821691505b60208210811415610b7d57610b7c610b22565b5b50919050565b7f506978656c3a206d696e74696e67206973207061757365640000000000000000600082015250565b6000610bb9601883610724565b9150610bc482610b83565b602082019050919050565b60006020820190508181036000830152610be881610bac565b9050919050565b7f4e487b7100000000000000000000000000000000000000000000000000000000600052601160045260246000fd5b6000610c2982610609565b9150610c3483610609565b9250827f800000000000000000000000000000000000000000000000000000000000000001821260008412151615610c6f57610c6e610bef565b5b827f7fffffffffffffffffffffffffffffffffffffffffffffffffffffffffffffff018213600084121615610ca757610ca6610bef565b5b82820390509291505056fea2646970667358221220959392fa1092114d606012c4bc96ae84d72559d2e9f4896b1781553100d5bc6264736f6c634300080b0033",
  "immutableReferences": {},
  "source": "// SPDX-License-Identifier: MIT\npragma solidity >=0.4.22 <0.9.0;\n\ncontract Pixel {\n\n  struct Metadata {\n    address owner;\n    uint color;\n    string message;\n    string image;\n    string url;\n  }\n\n  address public owner;\n  int public mintableAmount;\n  mapping(int => mapping(int => mapping( int => Metadata))) public pixels;\n\n  constructor(address _owner) {\n    owner = _owner;\n  }\n  \n  modifier onlyOwner() {\n    require(msg.sender == owner, \"Pixel: you're not the owner\");\n    _;\n  }\n\n  modifier onlyMintable() {\n    require(mintableAmount > 0, \"Pixel: minting is paused\");\n    mintableAmount -= 1;\n    _;\n  }\n\n  function setMintable(int _mintableAmount) onlyOwner public {\n    mintableAmount = _mintableAmount;\n  }\n\n  function mint(int x, int y, int z, uint _color, string memory _message, string memory _image,  string memory _url) onlyMintable  public{\n    pixels[x][y][z] = Metadata(msg.sender, _color, _message, _image, _url);\n  }\n\n\n}\n",
  "sourcePath": "/Users/joshuamartin/22/pixel/evm/contracts/Pixel.sol",
  "compiler": {
    "name": "solc",
    "version": "0.8.11+commit.d7f03943.Emscripten.clang"
  },
  "schemaVersion": "3.4.4",
  "updatedAt": "2022-08-17T02:52:45.763Z",
  "devdoc": {
    "kind": "dev",
    "methods": {},
    "version": 1
  },
  "userdoc": {
    "kind": "user",
    "methods": {},
    "version": 1
  }
}