{
  "contractName": "Light",
  "abi": [
    {
      "inputs": [],
      "stateMutability": "nonpayable",
      "type": "constructor"
    },
    {
      "anonymous": false,
      "inputs": [
        {
          "indexed": true,
          "internalType": "address",
          "name": "owner",
          "type": "address"
        },
        {
          "indexed": true,
          "internalType": "address",
          "name": "approved",
          "type": "address"
        },
        {
          "indexed": true,
          "internalType": "uint256",
          "name": "tokenId",
          "type": "uint256"
        }
      ],
      "name": "Approval",
      "type": "event"
    },
    {
      "anonymous": false,
      "inputs": [
        {
          "indexed": true,
          "internalType": "address",
          "name": "owner",
          "type": "address"
        },
        {
          "indexed": true,
          "internalType": "address",
          "name": "operator",
          "type": "address"
        },
        {
          "indexed": false,
          "internalType": "bool",
          "name": "approved",
          "type": "bool"
        }
      ],
      "name": "ApprovalForAll",
      "type": "event"
    },
    {
      "anonymous": false,
      "inputs": [
        {
          "indexed": false,
          "internalType": "int256",
          "name": "x",
          "type": "int256"
        },
        {
          "indexed": false,
          "internalType": "int256",
          "name": "y",
          "type": "int256"
        },
        {
          "indexed": false,
          "internalType": "int256",
          "name": "z",
          "type": "int256"
        },
        {
          "indexed": false,
          "internalType": "uint256",
          "name": "color",
          "type": "uint256"
        },
        {
          "indexed": false,
          "internalType": "address",
          "name": "minter",
          "type": "address"
        }
      ],
      "name": "Minted",
      "type": "event"
    },
    {
      "anonymous": false,
      "inputs": [
        {
          "indexed": true,
          "internalType": "address",
          "name": "from",
          "type": "address"
        },
        {
          "indexed": true,
          "internalType": "address",
          "name": "to",
          "type": "address"
        },
        {
          "indexed": true,
          "internalType": "uint256",
          "name": "tokenId",
          "type": "uint256"
        }
      ],
      "name": "Transfer",
      "type": "event"
    },
    {
      "anonymous": false,
      "inputs": [
        {
          "indexed": false,
          "internalType": "int256",
          "name": "x",
          "type": "int256"
        },
        {
          "indexed": false,
          "internalType": "int256",
          "name": "y",
          "type": "int256"
        },
        {
          "indexed": false,
          "internalType": "int256",
          "name": "z",
          "type": "int256"
        },
        {
          "indexed": false,
          "internalType": "uint256",
          "name": "color",
          "type": "uint256"
        },
        {
          "indexed": false,
          "internalType": "address",
          "name": "updater",
          "type": "address"
        }
      ],
      "name": "UpdatedColor",
      "type": "event"
    },
    {
      "inputs": [
        {
          "internalType": "address",
          "name": "to",
          "type": "address"
        },
        {
          "internalType": "uint256",
          "name": "tokenId",
          "type": "uint256"
        }
      ],
      "name": "approve",
      "outputs": [],
      "stateMutability": "nonpayable",
      "type": "function"
    },
    {
      "inputs": [
        {
          "internalType": "address",
          "name": "owner",
          "type": "address"
        }
      ],
      "name": "balanceOf",
      "outputs": [
        {
          "internalType": "uint256",
          "name": "",
          "type": "uint256"
        }
      ],
      "stateMutability": "view",
      "type": "function"
    },
    {
      "inputs": [
        {
          "internalType": "uint256",
          "name": "tokenId",
          "type": "uint256"
        }
      ],
      "name": "getApproved",
      "outputs": [
        {
          "internalType": "address",
          "name": "",
          "type": "address"
        }
      ],
      "stateMutability": "view",
      "type": "function"
    },
    {
      "inputs": [
        {
          "internalType": "address",
          "name": "owner",
          "type": "address"
        },
        {
          "internalType": "address",
          "name": "operator",
          "type": "address"
        }
      ],
      "name": "isApprovedForAll",
      "outputs": [
        {
          "internalType": "bool",
          "name": "",
          "type": "bool"
        }
      ],
      "stateMutability": "view",
      "type": "function"
    },
    {
      "inputs": [
        {
          "internalType": "int256",
          "name": "",
          "type": "int256"
        },
        {
          "internalType": "int256",
          "name": "",
          "type": "int256"
        },
        {
          "internalType": "int256",
          "name": "",
          "type": "int256"
        }
      ],
      "name": "light",
      "outputs": [
        {
          "internalType": "bool",
          "name": "minted",
          "type": "bool"
        },
        {
          "internalType": "address",
          "name": "owner",
          "type": "address"
        },
        {
          "internalType": "uint256",
          "name": "color",
          "type": "uint256"
        }
      ],
      "stateMutability": "view",
      "type": "function"
    },
    {
      "inputs": [],
      "name": "name",
      "outputs": [
        {
          "internalType": "string",
          "name": "",
          "type": "string"
        }
      ],
      "stateMutability": "view",
      "type": "function"
    },
    {
      "inputs": [
        {
          "internalType": "uint256",
          "name": "tokenId",
          "type": "uint256"
        }
      ],
      "name": "ownerOf",
      "outputs": [
        {
          "internalType": "address",
          "name": "",
          "type": "address"
        }
      ],
      "stateMutability": "view",
      "type": "function"
    },
    {
      "inputs": [
        {
          "internalType": "address",
          "name": "from",
          "type": "address"
        },
        {
          "internalType": "address",
          "name": "to",
          "type": "address"
        },
        {
          "internalType": "uint256",
          "name": "tokenId",
          "type": "uint256"
        }
      ],
      "name": "safeTransferFrom",
      "outputs": [],
      "stateMutability": "nonpayable",
      "type": "function"
    },
    {
      "inputs": [
        {
          "internalType": "address",
          "name": "from",
          "type": "address"
        },
        {
          "internalType": "address",
          "name": "to",
          "type": "address"
        },
        {
          "internalType": "uint256",
          "name": "tokenId",
          "type": "uint256"
        },
        {
          "internalType": "bytes",
          "name": "data",
          "type": "bytes"
        }
      ],
      "name": "safeTransferFrom",
      "outputs": [],
      "stateMutability": "nonpayable",
      "type": "function"
    },
    {
      "inputs": [
        {
          "internalType": "address",
          "name": "operator",
          "type": "address"
        },
        {
          "internalType": "bool",
          "name": "approved",
          "type": "bool"
        }
      ],
      "name": "setApprovalForAll",
      "outputs": [],
      "stateMutability": "nonpayable",
      "type": "function"
    },
    {
      "inputs": [
        {
          "internalType": "bytes4",
          "name": "interfaceId",
          "type": "bytes4"
        }
      ],
      "name": "supportsInterface",
      "outputs": [
        {
          "internalType": "bool",
          "name": "",
          "type": "bool"
        }
      ],
      "stateMutability": "view",
      "type": "function"
    },
    {
      "inputs": [],
      "name": "symbol",
      "outputs": [
        {
          "internalType": "string",
          "name": "",
          "type": "string"
        }
      ],
      "stateMutability": "view",
      "type": "function"
    },
    {
      "inputs": [
        {
          "internalType": "uint256",
          "name": "tokenId",
          "type": "uint256"
        }
      ],
      "name": "tokenURI",
      "outputs": [
        {
          "internalType": "string",
          "name": "",
          "type": "string"
        }
      ],
      "stateMutability": "view",
      "type": "function"
    },
    {
      "inputs": [
        {
          "internalType": "address",
          "name": "from",
          "type": "address"
        },
        {
          "internalType": "address",
          "name": "to",
          "type": "address"
        },
        {
          "internalType": "uint256",
          "name": "tokenId",
          "type": "uint256"
        }
      ],
      "name": "transferFrom",
      "outputs": [],
      "stateMutability": "nonpayable",
      "type": "function"
    },
    {
      "inputs": [
        {
          "internalType": "int256",
          "name": "_x",
          "type": "int256"
        },
        {
          "internalType": "int256",
          "name": "_y",
          "type": "int256"
        },
        {
          "internalType": "int256",
          "name": "_z",
          "type": "int256"
        }
      ],
      "name": "getLightInfo",
      "outputs": [
        {
          "internalType": "address",
          "name": "owner",
          "type": "address"
        },
        {
          "internalType": "uint256",
          "name": "color",
          "type": "uint256"
        }
      ],
      "stateMutability": "view",
      "type": "function"
    },
    {
      "inputs": [
        {
          "internalType": "int256",
          "name": "_x",
          "type": "int256"
        },
        {
          "internalType": "int256",
          "name": "_y",
          "type": "int256"
        },
        {
          "internalType": "int256",
          "name": "_z",
          "type": "int256"
        },
        {
          "internalType": "uint256",
          "name": "_color",
          "type": "uint256"
        }
      ],
      "name": "setColor",
      "outputs": [],
      "stateMutability": "nonpayable",
      "type": "function"
    },
    {
      "inputs": [
        {
          "internalType": "int256",
          "name": "_x",
          "type": "int256"
        },
        {
          "internalType": "int256",
          "name": "_y",
          "type": "int256"
        },
        {
          "internalType": "int256",
          "name": "_z",
          "type": "int256"
        },
        {
          "internalType": "uint256",
          "name": "_color",
          "type": "uint256"
        },
        {
          "internalType": "address",
          "name": "_owner",
          "type": "address"
        }
      ],
      "name": "mint",
      "outputs": [],
      "stateMutability": "nonpayable",
      "type": "function"
    }
  ],
  "bytecode": "0x60806040523480156200001157600080fd5b506040518060400160405280600581526020017f4c696768740000000000000000000000000000000000000000000000000000008152506040518060400160405280600281526020017f4c54000000000000000000000000000000000000000000000000000000000000815250816000908051906020019062000096929190620000b8565b508060019080519060200190620000af929190620000b8565b505050620001cd565b828054620000c69062000197565b90600052602060002090601f016020900481019282620000ea576000855562000136565b82601f106200010557805160ff191683800117855562000136565b8280016001018555821562000136579182015b828111156200013557825182559160200191906001019062000118565b5b50905062000145919062000149565b5090565b5b80821115620001645760008160009055506001016200014a565b5090565b7f4e487b7100000000000000000000000000000000000000000000000000000000600052602260045260246000fd5b60006002820490506001821680620001b057607f821691505b60208210811415620001c757620001c662000168565b5b50919050565b6128a480620001dd6000396000f3fe608060405234801561001057600080fd5b506004361061010b5760003560e01c806370a08231116100a2578063b814f6bb11610071578063b814f6bb146102b4578063b88d4fde146102e5578063c87b56dd14610301578063e985e9c514610331578063ea893248146103615761010b565b806370a082311461022e5780638681a8511461025e57806395d89b411461027a578063a22cb465146102985761010b565b806323b872dd116100de57806323b872dd146101aa5780632a86af31146101c657806342842e0e146101e25780636352211e146101fe5761010b565b806301ffc9a71461011057806306fdde0314610140578063081812fc1461015e578063095ea7b31461018e575b600080fd5b61012a6004803603810190610125919061181c565b610393565b6040516101379190611864565b60405180910390f35b610148610475565b6040516101559190611918565b60405180910390f35b61017860048036038101906101739190611970565b610507565b60405161018591906119de565b60405180910390f35b6101a860048036038101906101a39190611a25565b61054d565b005b6101c460048036038101906101bf9190611a65565b610665565b005b6101e060048036038101906101db9190611aee565b6106c5565b005b6101fc60048036038101906101f79190611a65565b610874565b005b61021860048036038101906102139190611970565b610894565b60405161022591906119de565b60405180910390f35b61024860048036038101906102439190611b69565b610946565b6040516102559190611ba5565b60405180910390f35b61027860048036038101906102739190611bc0565b6109fe565b005b610282610a80565b60405161028f9190611918565b60405180910390f35b6102b260048036038101906102ad9190611c53565b610b12565b005b6102ce60048036038101906102c99190611c93565b610b28565b6040516102dc929190611ce6565b60405180910390f35b6102ff60048036038101906102fa9190611e44565b610c0d565b005b61031b60048036038101906103169190611970565b610c6f565b6040516103289190611918565b60405180910390f35b61034b60048036038101906103469190611ec7565b610cd7565b6040516103589190611864565b60405180910390f35b61037b60048036038101906103769190611c93565b610d6b565b60405161038a93929190611f07565b60405180910390f35b60007f80ac58cd000000000000000000000000000000000000000000000000000000007bffffffffffffffffffffffffffffffffffffffffffffffffffffffff1916827bffffffffffffffffffffffffffffffffffffffffffffffffffffffff1916148061045e57507f5b5e139f000000000000000000000000000000000000000000000000000000007bffffffffffffffffffffffffffffffffffffffffffffffffffffffff1916827bffffffffffffffffffffffffffffffffffffffffffffffffffffffff1916145b8061046e575061046d82610ddc565b5b9050919050565b60606000805461048490611f6d565b80601f01602080910402602001604051908101604052809291908181526020018280546104b090611f6d565b80156104fd5780601f106104d2576101008083540402835291602001916104fd565b820191906000526020600020905b8154815290600101906020018083116104e057829003601f168201915b5050505050905090565b600061051282610e46565b6004600083815260200190815260200160002060009054906101000a900473ffffffffffffffffffffffffffffffffffffffff169050919050565b600061055882610894565b90508073ffffffffffffffffffffffffffffffffffffffff168373ffffffffffffffffffffffffffffffffffffffff1614156105c9576040517f08c379a00000000000000000000000000000000000000000000000000000000081526004016105c090612011565b60405180910390fd5b8073ffffffffffffffffffffffffffffffffffffffff166105e8610e91565b73ffffffffffffffffffffffffffffffffffffffff161480610617575061061681610611610e91565b610cd7565b5b610656576040517f08c379a000000000000000000000000000000000000000000000000000000000815260040161064d906120a3565b60405180910390fd5b6106608383610e99565b505050565b610676610670610e91565b82610f52565b6106b5576040517f08c379a00000000000000000000000000000000000000000000000000000000081526004016106ac90612135565b60405180910390fd5b6106c0838383610fe7565b505050565b60001515600660008781526020019081526020016000206000868152602001908152602001600020600085815260200190815260200160002060000160009054906101000a900460ff16151514610751576040517f08c379a0000000000000000000000000000000000000000000000000000000008152600401610748906121c7565b60405180910390fd5b60405180606001604052806001151581526020018273ffffffffffffffffffffffffffffffffffffffff16815260200183815250600660008781526020019081526020016000206000868152602001908152602001600020600085815260200190815260200160002060008201518160000160006101000a81548160ff02191690831515021790555060208201518160000160016101000a81548173ffffffffffffffffffffffffffffffffffffffff021916908373ffffffffffffffffffffffffffffffffffffffff160217905550604082015181600101559050507f77bf884b8a769aba6415185c453b22f8c441ad048a0c2594de5bc365dbfb2fad85858585856040516108659594939291906121f6565b60405180910390a15050505050565b61088f83838360405180602001604052806000815250610c0d565b505050565b6000806002600084815260200190815260200160002060009054906101000a900473ffffffffffffffffffffffffffffffffffffffff169050600073ffffffffffffffffffffffffffffffffffffffff168173ffffffffffffffffffffffffffffffffffffffff16141561093d576040517f08c379a000000000000000000000000000000000000000000000000000000000815260040161093490612295565b60405180910390fd5b80915050919050565b60008073ffffffffffffffffffffffffffffffffffffffff168273ffffffffffffffffffffffffffffffffffffffff1614156109b7576040517f08c379a00000000000000000000000000000000000000000000000000000000081526004016109ae90612327565b60405180910390fd5b600360008373ffffffffffffffffffffffffffffffffffffffff1673ffffffffffffffffffffffffffffffffffffffff168152602001908152602001600020549050919050565b806006600086815260200190815260200160002060008581526020019081526020016000206000848152602001908152602001600020600101819055507fdaa92d69b20b9b6b1b97a0bed422d91cd84d2ef2b97f6eaf365cbe93f0a996798484848433604051610a729594939291906121f6565b60405180910390a150505050565b606060018054610a8f90611f6d565b80601f0160208091040260200160405190810160405280929190818152602001828054610abb90611f6d565b8015610b085780601f10610add57610100808354040283529160200191610b08565b820191906000526020600020905b815481529060010190602001808311610aeb57829003601f168201915b5050505050905090565b610b24610b1d610e91565b838361124e565b5050565b600080600060066000878152602001908152602001600020600086815260200190815260200160002060008581526020019081526020016000206040518060600160405290816000820160009054906101000a900460ff161515151581526020016000820160019054906101000a900473ffffffffffffffffffffffffffffffffffffffff1673ffffffffffffffffffffffffffffffffffffffff1673ffffffffffffffffffffffffffffffffffffffff1681526020016001820154815250509050600081602001519050600082604001519050818194509450505050935093915050565b610c1e610c18610e91565b83610f52565b610c5d576040517f08c379a0000000000000000000000000000000000000000000000000000000008152600401610c5490612135565b60405180910390fd5b610c69848484846113bb565b50505050565b6060610c7a82610e46565b6000610c84611417565b90506000815111610ca45760405180602001604052806000815250610ccf565b80610cae8461142e565b604051602001610cbf929190612383565b6040516020818303038152906040525b915050919050565b6000600560008473ffffffffffffffffffffffffffffffffffffffff1673ffffffffffffffffffffffffffffffffffffffff16815260200190815260200160002060008373ffffffffffffffffffffffffffffffffffffffff1673ffffffffffffffffffffffffffffffffffffffff16815260200190815260200160002060009054906101000a900460ff16905092915050565b600660205282600052604060002060205281600052604060002060205280600052604060002060009250925050508060000160009054906101000a900460ff16908060000160019054906101000a900473ffffffffffffffffffffffffffffffffffffffff16908060010154905083565b60007f01ffc9a7000000000000000000000000000000000000000000000000000000007bffffffffffffffffffffffffffffffffffffffffffffffffffffffff1916827bffffffffffffffffffffffffffffffffffffffffffffffffffffffff1916149050919050565b610e4f8161158f565b610e8e576040517f08c379a0000000000000000000000000000000000000000000000000000000008152600401610e8590612295565b60405180910390fd5b50565b600033905090565b816004600083815260200190815260200160002060006101000a81548173ffffffffffffffffffffffffffffffffffffffff021916908373ffffffffffffffffffffffffffffffffffffffff160217905550808273ffffffffffffffffffffffffffffffffffffffff16610f0c83610894565b73ffffffffffffffffffffffffffffffffffffffff167f8c5be1e5ebec7d5bd14f71427d1e84f3dd0314c0f7b2291e5b200ac8c7c3b92560405160405180910390a45050565b600080610f5e83610894565b90508073ffffffffffffffffffffffffffffffffffffffff168473ffffffffffffffffffffffffffffffffffffffff161480610fa05750610f9f8185610cd7565b5b80610fde57508373ffffffffffffffffffffffffffffffffffffffff16610fc684610507565b73ffffffffffffffffffffffffffffffffffffffff16145b91505092915050565b8273ffffffffffffffffffffffffffffffffffffffff1661100782610894565b73ffffffffffffffffffffffffffffffffffffffff161461105d576040517f08c379a000000000000000000000000000000000000000000000000000000000815260040161105490612419565b60405180910390fd5b600073ffffffffffffffffffffffffffffffffffffffff168273ffffffffffffffffffffffffffffffffffffffff1614156110cd576040517f08c379a00000000000000000000000000000000000000000000000000000000081526004016110c4906124ab565b60405180910390fd5b6110d88383836115fb565b6110e3600082610e99565b6001600360008573ffffffffffffffffffffffffffffffffffffffff1673ffffffffffffffffffffffffffffffffffffffff168152602001908152602001600020600082825461113391906124fa565b925050819055506001600360008473ffffffffffffffffffffffffffffffffffffffff1673ffffffffffffffffffffffffffffffffffffffff168152602001908152602001600020600082825461118a919061252e565b92505081905550816002600083815260200190815260200160002060006101000a81548173ffffffffffffffffffffffffffffffffffffffff021916908373ffffffffffffffffffffffffffffffffffffffff160217905550808273ffffffffffffffffffffffffffffffffffffffff168473ffffffffffffffffffffffffffffffffffffffff167fddf252ad1be2c89b69c2b068fc378daa952ba7f163c4a11628f55a4df523b3ef60405160405180910390a4611249838383611600565b505050565b8173ffffffffffffffffffffffffffffffffffffffff168373ffffffffffffffffffffffffffffffffffffffff1614156112bd576040517f08c379a00000000000000000000000000000000000000000000000000000000081526004016112b4906125d0565b60405180910390fd5b80600560008573ffffffffffffffffffffffffffffffffffffffff1673ffffffffffffffffffffffffffffffffffffffff16815260200190815260200160002060008473ffffffffffffffffffffffffffffffffffffffff1673ffffffffffffffffffffffffffffffffffffffff16815260200190815260200160002060006101000a81548160ff0219169083151502179055508173ffffffffffffffffffffffffffffffffffffffff168373ffffffffffffffffffffffffffffffffffffffff167f17307eab39ab6107e8899845ad3d59bd9653f200f220920489ca2b5937696c31836040516113ae9190611864565b60405180910390a3505050565b6113c6848484610fe7565b6113d284848484611605565b611411576040517f08c379a000000000000000000000000000000000000000000000000000000000815260040161140890612662565b60405180910390fd5b50505050565b606060405180602001604052806000815250905090565b60606000821415611476576040518060400160405280600181526020017f3000000000000000000000000000000000000000000000000000000000000000815250905061158a565b600082905060005b600082146114a857808061149190612682565b915050600a826114a191906126fa565b915061147e565b60008167ffffffffffffffff8111156114c4576114c3611d19565b5b6040519080825280601f01601f1916602001820160405280156114f65781602001600182028036833780820191505090505b5090505b600085146115835760018261150f91906124fa565b9150600a8561151e919061272b565b603061152a919061252e565b60f81b8183815181106115405761153f61275c565b5b60200101907effffffffffffffffffffffffffffffffffffffffffffffffffffffffffffff1916908160001a905350600a8561157c91906126fa565b94506114fa565b8093505050505b919050565b60008073ffffffffffffffffffffffffffffffffffffffff166002600084815260200190815260200160002060009054906101000a900473ffffffffffffffffffffffffffffffffffffffff1673ffffffffffffffffffffffffffffffffffffffff1614159050919050565b505050565b505050565b60006116268473ffffffffffffffffffffffffffffffffffffffff1661178d565b15611780578373ffffffffffffffffffffffffffffffffffffffff1663150b7a0261164f610e91565b8786866040518563ffffffff1660e01b815260040161167194939291906127e0565b6020604051808303816000875af19250505080156116ad57506040513d601f19601f820116820180604052508101906116aa9190612841565b60015b611730573d80600081146116dd576040519150601f19603f3d011682016040523d82523d6000602084013e6116e2565b606091505b50600081511415611728576040517f08c379a000000000000000000000000000000000000000000000000000000000815260040161171f90612662565b60405180910390fd5b805181602001fd5b63150b7a0260e01b7bffffffffffffffffffffffffffffffffffffffffffffffffffffffff1916817bffffffffffffffffffffffffffffffffffffffffffffffffffffffff191614915050611785565b600190505b949350505050565b6000808273ffffffffffffffffffffffffffffffffffffffff163b119050919050565b6000604051905090565b600080fd5b600080fd5b60007fffffffff0000000000000000000000000000000000000000000000000000000082169050919050565b6117f9816117c4565b811461180457600080fd5b50565b600081359050611816816117f0565b92915050565b600060208284031215611832576118316117ba565b5b600061184084828501611807565b91505092915050565b60008115159050919050565b61185e81611849565b82525050565b60006020820190506118796000830184611855565b92915050565b600081519050919050565b600082825260208201905092915050565b60005b838110156118b957808201518184015260208101905061189e565b838111156118c8576000848401525b50505050565b6000601f19601f8301169050919050565b60006118ea8261187f565b6118f4818561188a565b935061190481856020860161189b565b61190d816118ce565b840191505092915050565b6000602082019050818103600083015261193281846118df565b905092915050565b6000819050919050565b61194d8161193a565b811461195857600080fd5b50565b60008135905061196a81611944565b92915050565b600060208284031215611986576119856117ba565b5b60006119948482850161195b565b91505092915050565b600073ffffffffffffffffffffffffffffffffffffffff82169050919050565b60006119c88261199d565b9050919050565b6119d8816119bd565b82525050565b60006020820190506119f360008301846119cf565b92915050565b611a02816119bd565b8114611a0d57600080fd5b50565b600081359050611a1f816119f9565b92915050565b60008060408385031215611a3c57611a3b6117ba565b5b6000611a4a85828601611a10565b9250506020611a5b8582860161195b565b9150509250929050565b600080600060608486031215611a7e57611a7d6117ba565b5b6000611a8c86828701611a10565b9350506020611a9d86828701611a10565b9250506040611aae8682870161195b565b9150509250925092565b6000819050919050565b611acb81611ab8565b8114611ad657600080fd5b50565b600081359050611ae881611ac2565b92915050565b600080600080600060a08688031215611b0a57611b096117ba565b5b6000611b1888828901611ad9565b9550506020611b2988828901611ad9565b9450506040611b3a88828901611ad9565b9350506060611b4b8882890161195b565b9250506080611b5c88828901611a10565b9150509295509295909350565b600060208284031215611b7f57611b7e6117ba565b5b6000611b8d84828501611a10565b91505092915050565b611b9f8161193a565b82525050565b6000602082019050611bba6000830184611b96565b92915050565b60008060008060808587031215611bda57611bd96117ba565b5b6000611be887828801611ad9565b9450506020611bf987828801611ad9565b9350506040611c0a87828801611ad9565b9250506060611c1b8782880161195b565b91505092959194509250565b611c3081611849565b8114611c3b57600080fd5b50565b600081359050611c4d81611c27565b92915050565b60008060408385031215611c6a57611c696117ba565b5b6000611c7885828601611a10565b9250506020611c8985828601611c3e565b9150509250929050565b600080600060608486031215611cac57611cab6117ba565b5b6000611cba86828701611ad9565b9350506020611ccb86828701611ad9565b9250506040611cdc86828701611ad9565b9150509250925092565b6000604082019050611cfb60008301856119cf565b611d086020830184611b96565b9392505050565b600080fd5b600080fd5b7f4e487b7100000000000000000000000000000000000000000000000000000000600052604160045260246000fd5b611d51826118ce565b810181811067ffffffffffffffff82111715611d7057611d6f611d19565b5b80604052505050565b6000611d836117b0565b9050611d8f8282611d48565b919050565b600067ffffffffffffffff821115611daf57611dae611d19565b5b611db8826118ce565b9050602081019050919050565b82818337600083830152505050565b6000611de7611de284611d94565b611d79565b905082815260208101848484011115611e0357611e02611d14565b5b611e0e848285611dc5565b509392505050565b600082601f830112611e2b57611e2a611d0f565b5b8135611e3b848260208601611dd4565b91505092915050565b60008060008060808587031215611e5e57611e5d6117ba565b5b6000611e6c87828801611a10565b9450506020611e7d87828801611a10565b9350506040611e8e8782880161195b565b925050606085013567ffffffffffffffff811115611eaf57611eae6117bf565b5b611ebb87828801611e16565b91505092959194509250565b60008060408385031215611ede57611edd6117ba565b5b6000611eec85828601611a10565b9250506020611efd85828601611a10565b9150509250929050565b6000606082019050611f1c6000830186611855565b611f2960208301856119cf565b611f366040830184611b96565b949350505050565b7f4e487b7100000000000000000000000000000000000000000000000000000000600052602260045260246000fd5b60006002820490506001821680611f8557607f821691505b60208210811415611f9957611f98611f3e565b5b50919050565b7f4552433732313a20617070726f76616c20746f2063757272656e74206f776e6560008201527f7200000000000000000000000000000000000000000000000000000000000000602082015250565b6000611ffb60218361188a565b915061200682611f9f565b604082019050919050565b6000602082019050818103600083015261202a81611fee565b9050919050565b7f4552433732313a20617070726f76652063616c6c6572206973206e6f7420746f60008201527f6b656e206f776e6572206e6f7220617070726f76656420666f7220616c6c0000602082015250565b600061208d603e8361188a565b915061209882612031565b604082019050919050565b600060208201905081810360008301526120bc81612080565b9050919050565b7f4552433732313a2063616c6c6572206973206e6f7420746f6b656e206f776e6560008201527f72206e6f7220617070726f766564000000000000000000000000000000000000602082015250565b600061211f602e8361188a565b915061212a826120c3565b604082019050919050565b6000602082019050818103600083015261214e81612112565b9050919050565b7f4c696768743a2074686973204e46542068617320616c7265616479206265656e60008201527f206d696e74656400000000000000000000000000000000000000000000000000602082015250565b60006121b160278361188a565b91506121bc82612155565b604082019050919050565b600060208201905081810360008301526121e0816121a4565b9050919050565b6121f081611ab8565b82525050565b600060a08201905061220b60008301886121e7565b61221860208301876121e7565b61222560408301866121e7565b6122326060830185611b96565b61223f60808301846119cf565b9695505050505050565b7f4552433732313a20696e76616c696420746f6b656e2049440000000000000000600082015250565b600061227f60188361188a565b915061228a82612249565b602082019050919050565b600060208201905081810360008301526122ae81612272565b9050919050565b7f4552433732313a2061646472657373207a65726f206973206e6f74206120766160008201527f6c6964206f776e65720000000000000000000000000000000000000000000000602082015250565b600061231160298361188a565b915061231c826122b5565b604082019050919050565b6000602082019050818103600083015261234081612304565b9050919050565b600081905092915050565b600061235d8261187f565b6123678185612347565b935061237781856020860161189b565b80840191505092915050565b600061238f8285612352565b915061239b8284612352565b91508190509392505050565b7f4552433732313a207472616e736665722066726f6d20696e636f72726563742060008201527f6f776e6572000000000000000000000000000000000000000000000000000000602082015250565b600061240360258361188a565b915061240e826123a7565b604082019050919050565b60006020820190508181036000830152612432816123f6565b9050919050565b7f4552433732313a207472616e7366657220746f20746865207a65726f2061646460008201527f7265737300000000000000000000000000000000000000000000000000000000602082015250565b600061249560248361188a565b91506124a082612439565b604082019050919050565b600060208201905081810360008301526124c481612488565b9050919050565b7f4e487b7100000000000000000000000000000000000000000000000000000000600052601160045260246000fd5b60006125058261193a565b91506125108361193a565b925082821015612523576125226124cb565b5b828203905092915050565b60006125398261193a565b91506125448361193a565b9250827fffffffffffffffffffffffffffffffffffffffffffffffffffffffffffffffff03821115612579576125786124cb565b5b828201905092915050565b7f4552433732313a20617070726f766520746f2063616c6c657200000000000000600082015250565b60006125ba60198361188a565b91506125c582612584565b602082019050919050565b600060208201905081810360008301526125e9816125ad565b9050919050565b7f4552433732313a207472616e7366657220746f206e6f6e20455243373231526560008201527f63656976657220696d706c656d656e7465720000000000000000000000000000602082015250565b600061264c60328361188a565b9150612657826125f0565b604082019050919050565b6000602082019050818103600083015261267b8161263f565b9050919050565b600061268d8261193a565b91507fffffffffffffffffffffffffffffffffffffffffffffffffffffffffffffffff8214156126c0576126bf6124cb565b5b600182019050919050565b7f4e487b7100000000000000000000000000000000000000000000000000000000600052601260045260246000fd5b60006127058261193a565b91506127108361193a565b9250826127205761271f6126cb565b5b828204905092915050565b60006127368261193a565b91506127418361193a565b925082612751576127506126cb565b5b828206905092915050565b7f4e487b7100000000000000000000000000000000000000000000000000000000600052603260045260246000fd5b600081519050919050565b600082825260208201905092915050565b60006127b28261278b565b6127bc8185612796565b93506127cc81856020860161189b565b6127d5816118ce565b840191505092915050565b60006080820190506127f560008301876119cf565b61280260208301866119cf565b61280f6040830185611b96565b818103606083015261282181846127a7565b905095945050505050565b60008151905061283b816117f0565b92915050565b600060208284031215612857576128566117ba565b5b60006128658482850161282c565b9150509291505056fea26469706673582212203a990e86341c451f6b1ea2c1fbcf371c11d3d715fc82190c6056b5a115174f8f64736f6c634300080b0033",
  "immutableReferences": {},
  "source": "// SPDX-License-Identifier: MIT\npragma solidity >=0.4.22 <0.9.0;\nimport \"@openzeppelin/contracts/token/ERC721/ERC721.sol\";\n\ncontract Light is ERC721 {\n  constructor() ERC721(\"Light\", \"LT\") {\n  }\n\n  // Mapping\n  struct LightInfo { \n    bool minted;\n    address owner;\n    uint color;\n  }\n  mapping(int => mapping(int => mapping(int => LightInfo))) public light;\n  function getLightInfo(int _x, int _y, int _z) public view returns (address owner, uint color) {\n    LightInfo memory info = light[_x][_y][_z];\n    address _owner = info.owner;\n    uint _color = info.color;\n    return (_owner, _color);\n  }\n\n  // Colors\n  event UpdatedColor(int x, int y, int z, uint color, address updater);\n  function setColor(int _x, int _y, int _z,uint _color) public {\n    light[_x][_y][_z].color = _color;\n    emit UpdatedColor(_x, _y, _z, _color, msg.sender);\n  }\n\n  // Minting\n  event Minted(int x, int y, int z, uint color, address minter);\n  function mint(int _x, int _y, int _z, uint _color, address _owner) public {\n    require(light[_x][_y][_z].minted == false, \"Light: this NFT has already been minted\");\n    light[_x][_y][_z] = LightInfo(true, _owner, _color);\n    emit Minted(_x, _y, _z, _color, _owner);\n  }\n\n}\n",
  "sourcePath": "/Users/joshuamartin/22/lights/evm/contracts/Light.sol",
  "compiler": {
    "name": "solc",
    "version": "0.8.11+commit.d7f03943.Emscripten.clang"
  },
  "schemaVersion": "3.4.4",
  "updatedAt": "2022-08-23T04:21:08.684Z",
  "devdoc": {
    "kind": "dev",
    "methods": {
      "approve(address,uint256)": {
        "details": "See {IERC721-approve}."
      },
      "balanceOf(address)": {
        "details": "See {IERC721-balanceOf}."
      },
      "getApproved(uint256)": {
        "details": "See {IERC721-getApproved}."
      },
      "isApprovedForAll(address,address)": {
        "details": "See {IERC721-isApprovedForAll}."
      },
      "name()": {
        "details": "See {IERC721Metadata-name}."
      },
      "ownerOf(uint256)": {
        "details": "See {IERC721-ownerOf}."
      },
      "safeTransferFrom(address,address,uint256)": {
        "details": "See {IERC721-safeTransferFrom}."
      },
      "safeTransferFrom(address,address,uint256,bytes)": {
        "details": "See {IERC721-safeTransferFrom}."
      },
      "setApprovalForAll(address,bool)": {
        "details": "See {IERC721-setApprovalForAll}."
      },
      "supportsInterface(bytes4)": {
        "details": "See {IERC165-supportsInterface}."
      },
      "symbol()": {
        "details": "See {IERC721Metadata-symbol}."
      },
      "tokenURI(uint256)": {
        "details": "See {IERC721Metadata-tokenURI}."
      },
      "transferFrom(address,address,uint256)": {
        "details": "See {IERC721-transferFrom}."
      }
    },
    "version": 1
  },
  "userdoc": {
    "kind": "user",
    "methods": {},
    "version": 1
  }
}