{
  "contractName": "Light",
  "abi": [
    {
      "inputs": [],
      "stateMutability": "nonpayable",
      "type": "constructor"
    },
    {
      "anonymous": false,
      "inputs": [
        {
          "indexed": true,
          "internalType": "address",
          "name": "owner",
          "type": "address"
        },
        {
          "indexed": true,
          "internalType": "address",
          "name": "approved",
          "type": "address"
        },
        {
          "indexed": true,
          "internalType": "uint256",
          "name": "tokenId",
          "type": "uint256"
        }
      ],
      "name": "Approval",
      "type": "event"
    },
    {
      "anonymous": false,
      "inputs": [
        {
          "indexed": true,
          "internalType": "address",
          "name": "owner",
          "type": "address"
        },
        {
          "indexed": true,
          "internalType": "address",
          "name": "operator",
          "type": "address"
        },
        {
          "indexed": false,
          "internalType": "bool",
          "name": "approved",
          "type": "bool"
        }
      ],
      "name": "ApprovalForAll",
      "type": "event"
    },
    {
      "anonymous": false,
      "inputs": [
        {
          "indexed": false,
          "internalType": "uint256",
          "name": "x",
          "type": "uint256"
        },
        {
          "indexed": false,
          "internalType": "uint256",
          "name": "y",
          "type": "uint256"
        },
        {
          "indexed": false,
          "internalType": "uint256",
          "name": "z",
          "type": "uint256"
        },
        {
          "indexed": false,
          "internalType": "address",
          "name": "minter",
          "type": "address"
        }
      ],
      "name": "Minted",
      "type": "event"
    },
    {
      "anonymous": false,
      "inputs": [
        {
          "indexed": true,
          "internalType": "address",
          "name": "from",
          "type": "address"
        },
        {
          "indexed": true,
          "internalType": "address",
          "name": "to",
          "type": "address"
        },
        {
          "indexed": true,
          "internalType": "uint256",
          "name": "tokenId",
          "type": "uint256"
        }
      ],
      "name": "Transfer",
      "type": "event"
    },
    {
      "anonymous": false,
      "inputs": [
        {
          "indexed": false,
          "internalType": "uint256",
          "name": "x",
          "type": "uint256"
        },
        {
          "indexed": false,
          "internalType": "uint256",
          "name": "y",
          "type": "uint256"
        },
        {
          "indexed": false,
          "internalType": "uint256",
          "name": "z",
          "type": "uint256"
        },
        {
          "indexed": false,
          "internalType": "uint256",
          "name": "color",
          "type": "uint256"
        },
        {
          "indexed": false,
          "internalType": "address",
          "name": "updater",
          "type": "address"
        }
      ],
      "name": "UpdatedColor",
      "type": "event"
    },
    {
      "inputs": [
        {
          "internalType": "address",
          "name": "to",
          "type": "address"
        },
        {
          "internalType": "uint256",
          "name": "tokenId",
          "type": "uint256"
        }
      ],
      "name": "approve",
      "outputs": [],
      "stateMutability": "nonpayable",
      "type": "function"
    },
    {
      "inputs": [
        {
          "internalType": "address",
          "name": "owner",
          "type": "address"
        }
      ],
      "name": "balanceOf",
      "outputs": [
        {
          "internalType": "uint256",
          "name": "",
          "type": "uint256"
        }
      ],
      "stateMutability": "view",
      "type": "function"
    },
    {
      "inputs": [
        {
          "internalType": "uint256",
          "name": "tokenId",
          "type": "uint256"
        }
      ],
      "name": "getApproved",
      "outputs": [
        {
          "internalType": "address",
          "name": "",
          "type": "address"
        }
      ],
      "stateMutability": "view",
      "type": "function"
    },
    {
      "inputs": [
        {
          "internalType": "address",
          "name": "owner",
          "type": "address"
        },
        {
          "internalType": "address",
          "name": "operator",
          "type": "address"
        }
      ],
      "name": "isApprovedForAll",
      "outputs": [
        {
          "internalType": "bool",
          "name": "",
          "type": "bool"
        }
      ],
      "stateMutability": "view",
      "type": "function"
    },
    {
      "inputs": [
        {
          "internalType": "uint256",
          "name": "",
          "type": "uint256"
        },
        {
          "internalType": "uint256",
          "name": "",
          "type": "uint256"
        },
        {
          "internalType": "uint256",
          "name": "",
          "type": "uint256"
        }
      ],
      "name": "light",
      "outputs": [
        {
          "internalType": "address",
          "name": "owner",
          "type": "address"
        },
        {
          "internalType": "uint256",
          "name": "color",
          "type": "uint256"
        }
      ],
      "stateMutability": "view",
      "type": "function"
    },
    {
      "inputs": [],
      "name": "name",
      "outputs": [
        {
          "internalType": "string",
          "name": "",
          "type": "string"
        }
      ],
      "stateMutability": "view",
      "type": "function"
    },
    {
      "inputs": [
        {
          "internalType": "uint256",
          "name": "tokenId",
          "type": "uint256"
        }
      ],
      "name": "ownerOf",
      "outputs": [
        {
          "internalType": "address",
          "name": "",
          "type": "address"
        }
      ],
      "stateMutability": "view",
      "type": "function"
    },
    {
      "inputs": [
        {
          "internalType": "address",
          "name": "from",
          "type": "address"
        },
        {
          "internalType": "address",
          "name": "to",
          "type": "address"
        },
        {
          "internalType": "uint256",
          "name": "tokenId",
          "type": "uint256"
        }
      ],
      "name": "safeTransferFrom",
      "outputs": [],
      "stateMutability": "nonpayable",
      "type": "function"
    },
    {
      "inputs": [
        {
          "internalType": "address",
          "name": "from",
          "type": "address"
        },
        {
          "internalType": "address",
          "name": "to",
          "type": "address"
        },
        {
          "internalType": "uint256",
          "name": "tokenId",
          "type": "uint256"
        },
        {
          "internalType": "bytes",
          "name": "data",
          "type": "bytes"
        }
      ],
      "name": "safeTransferFrom",
      "outputs": [],
      "stateMutability": "nonpayable",
      "type": "function"
    },
    {
      "inputs": [
        {
          "internalType": "address",
          "name": "operator",
          "type": "address"
        },
        {
          "internalType": "bool",
          "name": "approved",
          "type": "bool"
        }
      ],
      "name": "setApprovalForAll",
      "outputs": [],
      "stateMutability": "nonpayable",
      "type": "function"
    },
    {
      "inputs": [
        {
          "internalType": "bytes4",
          "name": "interfaceId",
          "type": "bytes4"
        }
      ],
      "name": "supportsInterface",
      "outputs": [
        {
          "internalType": "bool",
          "name": "",
          "type": "bool"
        }
      ],
      "stateMutability": "view",
      "type": "function"
    },
    {
      "inputs": [],
      "name": "symbol",
      "outputs": [
        {
          "internalType": "string",
          "name": "",
          "type": "string"
        }
      ],
      "stateMutability": "view",
      "type": "function"
    },
    {
      "inputs": [
        {
          "internalType": "uint256",
          "name": "tokenId",
          "type": "uint256"
        }
      ],
      "name": "tokenURI",
      "outputs": [
        {
          "internalType": "string",
          "name": "",
          "type": "string"
        }
      ],
      "stateMutability": "view",
      "type": "function"
    },
    {
      "inputs": [
        {
          "internalType": "address",
          "name": "from",
          "type": "address"
        },
        {
          "internalType": "address",
          "name": "to",
          "type": "address"
        },
        {
          "internalType": "uint256",
          "name": "tokenId",
          "type": "uint256"
        }
      ],
      "name": "transferFrom",
      "outputs": [],
      "stateMutability": "nonpayable",
      "type": "function"
    },
    {
      "inputs": [
        {
          "internalType": "uint256",
          "name": "_x",
          "type": "uint256"
        },
        {
          "internalType": "uint256",
          "name": "_y",
          "type": "uint256"
        },
        {
          "internalType": "uint256",
          "name": "_z",
          "type": "uint256"
        },
        {
          "internalType": "uint256",
          "name": "_color",
          "type": "uint256"
        }
      ],
      "name": "setColor",
      "outputs": [],
      "stateMutability": "nonpayable",
      "type": "function"
    },
    {
      "inputs": [
        {
          "internalType": "uint256",
          "name": "_x",
          "type": "uint256"
        },
        {
          "internalType": "uint256",
          "name": "_y",
          "type": "uint256"
        },
        {
          "internalType": "uint256",
          "name": "_z",
          "type": "uint256"
        },
        {
          "internalType": "uint256",
          "name": "_color",
          "type": "uint256"
        },
        {
          "internalType": "address",
          "name": "_owner",
          "type": "address"
        }
      ],
      "name": "mint",
      "outputs": [],
      "stateMutability": "nonpayable",
      "type": "function"
    }
  ],
  "bytecode": "0x60806040523480156200001157600080fd5b506040518060400160405280600581526020017f4c696768740000000000000000000000000000000000000000000000000000008152506040518060400160405280600281526020017f4c54000000000000000000000000000000000000000000000000000000000000815250816000908051906020019062000096929190620000b8565b508060019080519060200190620000af929190620000b8565b505050620001cd565b828054620000c69062000197565b90600052602060002090601f016020900481019282620000ea576000855562000136565b82601f106200010557805160ff191683800117855562000136565b8280016001018555821562000136579182015b828111156200013557825182559160200191906001019062000118565b5b50905062000145919062000149565b5090565b5b80821115620001645760008160009055506001016200014a565b5090565b7f4e487b7100000000000000000000000000000000000000000000000000000000600052602260045260246000fd5b60006002820490506001821680620001b057607f821691505b60208210811415620001c757620001c662000168565b5b50919050565b6125ef80620001dd6000396000f3fe608060405234801561001057600080fd5b50600436106101005760003560e01c806370a0823111610097578063a4e4d76211610066578063a4e4d762146102a9578063b88d4fde146102da578063c87b56dd146102f6578063e985e9c51461032657610100565b806370a082311461022357806395d89b4114610253578063a22cb46514610271578063a3e6dc281461028d57610100565b8063095ea7b3116100d3578063095ea7b31461019f57806323b872dd146101bb57806342842e0e146101d75780636352211e146101f357610100565b8063017c88601461010557806301ffc9a71461012157806306fdde0314610151578063081812fc1461016f575b600080fd5b61011f600480360381019061011a919061160e565b610356565b005b61013b600480360381019061013691906116cd565b6103d8565b6040516101489190611715565b60405180910390f35b6101596104ba565b60405161016691906117c9565b60405180910390f35b610189600480360381019061018491906117eb565b61054c565b6040516101969190611859565b60405180910390f35b6101b960048036038101906101b491906118a0565b610592565b005b6101d560048036038101906101d091906118e0565b6106aa565b005b6101f160048036038101906101ec91906118e0565b61070a565b005b61020d600480360381019061020891906117eb565b61072a565b60405161021a9190611859565b60405180910390f35b61023d60048036038101906102389190611933565b6107dc565b60405161024a919061196f565b60405180910390f35b61025b610894565b60405161026891906117c9565b60405180910390f35b61028b600480360381019061028691906119b6565b610926565b005b6102a760048036038101906102a291906119f6565b61093c565b005b6102c360048036038101906102be9190611a71565b610a34565b6040516102d1929190611ac4565b60405180910390f35b6102f460048036038101906102ef9190611c22565b610a92565b005b610310600480360381019061030b91906117eb565b610af4565b60405161031d91906117c9565b60405180910390f35b610340600480360381019061033b9190611ca5565b610b5c565b60405161034d9190611715565b60405180910390f35b806006600086815260200190815260200160002060008581526020019081526020016000206000848152602001908152602001600020600101819055507f73762d35a6454fe547a78d2808729a42844cc72738fc57940f2b4b65bb44a74184848484336040516103ca959493929190611ce5565b60405180910390a150505050565b60007f80ac58cd000000000000000000000000000000000000000000000000000000007bffffffffffffffffffffffffffffffffffffffffffffffffffffffff1916827bffffffffffffffffffffffffffffffffffffffffffffffffffffffff191614806104a357507f5b5e139f000000000000000000000000000000000000000000000000000000007bffffffffffffffffffffffffffffffffffffffffffffffffffffffff1916827bffffffffffffffffffffffffffffffffffffffffffffffffffffffff1916145b806104b357506104b282610bf0565b5b9050919050565b6060600080546104c990611d67565b80601f01602080910402602001604051908101604052809291908181526020018280546104f590611d67565b80156105425780601f1061051757610100808354040283529160200191610542565b820191906000526020600020905b81548152906001019060200180831161052557829003601f168201915b5050505050905090565b600061055782610c5a565b6004600083815260200190815260200160002060009054906101000a900473ffffffffffffffffffffffffffffffffffffffff169050919050565b600061059d8261072a565b90508073ffffffffffffffffffffffffffffffffffffffff168373ffffffffffffffffffffffffffffffffffffffff16141561060e576040517f08c379a000000000000000000000000000000000000000000000000000000000815260040161060590611e0b565b60405180910390fd5b8073ffffffffffffffffffffffffffffffffffffffff1661062d610ca5565b73ffffffffffffffffffffffffffffffffffffffff16148061065c575061065b81610656610ca5565b610b5c565b5b61069b576040517f08c379a000000000000000000000000000000000000000000000000000000000815260040161069290611e9d565b60405180910390fd5b6106a58383610cad565b505050565b6106bb6106b5610ca5565b82610d66565b6106fa576040517f08c379a00000000000000000000000000000000000000000000000000000000081526004016106f190611f2f565b60405180910390fd5b610705838383610dfb565b505050565b61072583838360405180602001604052806000815250610a92565b505050565b6000806002600084815260200190815260200160002060009054906101000a900473ffffffffffffffffffffffffffffffffffffffff169050600073ffffffffffffffffffffffffffffffffffffffff168173ffffffffffffffffffffffffffffffffffffffff1614156107d3576040517f08c379a00000000000000000000000000000000000000000000000000000000081526004016107ca90611f9b565b60405180910390fd5b80915050919050565b60008073ffffffffffffffffffffffffffffffffffffffff168273ffffffffffffffffffffffffffffffffffffffff16141561084d576040517f08c379a00000000000000000000000000000000000000000000000000000000081526004016108449061202d565b60405180910390fd5b600360008373ffffffffffffffffffffffffffffffffffffffff1673ffffffffffffffffffffffffffffffffffffffff168152602001908152602001600020549050919050565b6060600180546108a390611d67565b80601f01602080910402602001604051908101604052809291908181526020018280546108cf90611d67565b801561091c5780601f106108f15761010080835404028352916020019161091c565b820191906000526020600020905b8154815290600101906020018083116108ff57829003601f168201915b5050505050905090565b610938610931610ca5565b8383611062565b5050565b60405180604001604052808273ffffffffffffffffffffffffffffffffffffffff16815260200183815250600660008781526020019081526020016000206000868152602001908152602001600020600085815260200190815260200160002060008201518160000160006101000a81548173ffffffffffffffffffffffffffffffffffffffff021916908373ffffffffffffffffffffffffffffffffffffffff160217905550602082015181600101559050507fd97cccf089c5a64dadd1ae1759a388c0d44fb33bb35b4b51f214d8250d3683b885858584604051610a25949392919061204d565b60405180910390a15050505050565b600660205282600052604060002060205281600052604060002060205280600052604060002060009250925050508060000160009054906101000a900473ffffffffffffffffffffffffffffffffffffffff16908060010154905082565b610aa3610a9d610ca5565b83610d66565b610ae2576040517f08c379a0000000000000000000000000000000000000000000000000000000008152600401610ad990611f2f565b60405180910390fd5b610aee848484846111cf565b50505050565b6060610aff82610c5a565b6000610b0961122b565b90506000815111610b295760405180602001604052806000815250610b54565b80610b3384611242565b604051602001610b449291906120ce565b6040516020818303038152906040525b915050919050565b6000600560008473ffffffffffffffffffffffffffffffffffffffff1673ffffffffffffffffffffffffffffffffffffffff16815260200190815260200160002060008373ffffffffffffffffffffffffffffffffffffffff1673ffffffffffffffffffffffffffffffffffffffff16815260200190815260200160002060009054906101000a900460ff16905092915050565b60007f01ffc9a7000000000000000000000000000000000000000000000000000000007bffffffffffffffffffffffffffffffffffffffffffffffffffffffff1916827bffffffffffffffffffffffffffffffffffffffffffffffffffffffff1916149050919050565b610c63816113a3565b610ca2576040517f08c379a0000000000000000000000000000000000000000000000000000000008152600401610c9990611f9b565b60405180910390fd5b50565b600033905090565b816004600083815260200190815260200160002060006101000a81548173ffffffffffffffffffffffffffffffffffffffff021916908373ffffffffffffffffffffffffffffffffffffffff160217905550808273ffffffffffffffffffffffffffffffffffffffff16610d208361072a565b73ffffffffffffffffffffffffffffffffffffffff167f8c5be1e5ebec7d5bd14f71427d1e84f3dd0314c0f7b2291e5b200ac8c7c3b92560405160405180910390a45050565b600080610d728361072a565b90508073ffffffffffffffffffffffffffffffffffffffff168473ffffffffffffffffffffffffffffffffffffffff161480610db45750610db38185610b5c565b5b80610df257508373ffffffffffffffffffffffffffffffffffffffff16610dda8461054c565b73ffffffffffffffffffffffffffffffffffffffff16145b91505092915050565b8273ffffffffffffffffffffffffffffffffffffffff16610e1b8261072a565b73ffffffffffffffffffffffffffffffffffffffff1614610e71576040517f08c379a0000000000000000000000000000000000000000000000000000000008152600401610e6890612164565b60405180910390fd5b600073ffffffffffffffffffffffffffffffffffffffff168273ffffffffffffffffffffffffffffffffffffffff161415610ee1576040517f08c379a0000000000000000000000000000000000000000000000000000000008152600401610ed8906121f6565b60405180910390fd5b610eec83838361140f565b610ef7600082610cad565b6001600360008573ffffffffffffffffffffffffffffffffffffffff1673ffffffffffffffffffffffffffffffffffffffff1681526020019081526020016000206000828254610f479190612245565b925050819055506001600360008473ffffffffffffffffffffffffffffffffffffffff1673ffffffffffffffffffffffffffffffffffffffff1681526020019081526020016000206000828254610f9e9190612279565b92505081905550816002600083815260200190815260200160002060006101000a81548173ffffffffffffffffffffffffffffffffffffffff021916908373ffffffffffffffffffffffffffffffffffffffff160217905550808273ffffffffffffffffffffffffffffffffffffffff168473ffffffffffffffffffffffffffffffffffffffff167fddf252ad1be2c89b69c2b068fc378daa952ba7f163c4a11628f55a4df523b3ef60405160405180910390a461105d838383611414565b505050565b8173ffffffffffffffffffffffffffffffffffffffff168373ffffffffffffffffffffffffffffffffffffffff1614156110d1576040517f08c379a00000000000000000000000000000000000000000000000000000000081526004016110c89061231b565b60405180910390fd5b80600560008573ffffffffffffffffffffffffffffffffffffffff1673ffffffffffffffffffffffffffffffffffffffff16815260200190815260200160002060008473ffffffffffffffffffffffffffffffffffffffff1673ffffffffffffffffffffffffffffffffffffffff16815260200190815260200160002060006101000a81548160ff0219169083151502179055508173ffffffffffffffffffffffffffffffffffffffff168373ffffffffffffffffffffffffffffffffffffffff167f17307eab39ab6107e8899845ad3d59bd9653f200f220920489ca2b5937696c31836040516111c29190611715565b60405180910390a3505050565b6111da848484610dfb565b6111e684848484611419565b611225576040517f08c379a000000000000000000000000000000000000000000000000000000000815260040161121c906123ad565b60405180910390fd5b50505050565b606060405180602001604052806000815250905090565b6060600082141561128a576040518060400160405280600181526020017f3000000000000000000000000000000000000000000000000000000000000000815250905061139e565b600082905060005b600082146112bc5780806112a5906123cd565b915050600a826112b59190612445565b9150611292565b60008167ffffffffffffffff8111156112d8576112d7611af7565b5b6040519080825280601f01601f19166020018201604052801561130a5781602001600182028036833780820191505090505b5090505b60008514611397576001826113239190612245565b9150600a856113329190612476565b603061133e9190612279565b60f81b818381518110611354576113536124a7565b5b60200101907effffffffffffffffffffffffffffffffffffffffffffffffffffffffffffff1916908160001a905350600a856113909190612445565b945061130e565b8093505050505b919050565b60008073ffffffffffffffffffffffffffffffffffffffff166002600084815260200190815260200160002060009054906101000a900473ffffffffffffffffffffffffffffffffffffffff1673ffffffffffffffffffffffffffffffffffffffff1614159050919050565b505050565b505050565b600061143a8473ffffffffffffffffffffffffffffffffffffffff166115a1565b15611594578373ffffffffffffffffffffffffffffffffffffffff1663150b7a02611463610ca5565b8786866040518563ffffffff1660e01b8152600401611485949392919061252b565b6020604051808303816000875af19250505080156114c157506040513d601f19601f820116820180604052508101906114be919061258c565b60015b611544573d80600081146114f1576040519150601f19603f3d011682016040523d82523d6000602084013e6114f6565b606091505b5060008151141561153c576040517f08c379a0000000000000000000000000000000000000000000000000000000008152600401611533906123ad565b60405180910390fd5b805181602001fd5b63150b7a0260e01b7bffffffffffffffffffffffffffffffffffffffffffffffffffffffff1916817bffffffffffffffffffffffffffffffffffffffffffffffffffffffff191614915050611599565b600190505b949350505050565b6000808273ffffffffffffffffffffffffffffffffffffffff163b119050919050565b6000604051905090565b600080fd5b600080fd5b6000819050919050565b6115eb816115d8565b81146115f657600080fd5b50565b600081359050611608816115e2565b92915050565b60008060008060808587031215611628576116276115ce565b5b6000611636878288016115f9565b9450506020611647878288016115f9565b9350506040611658878288016115f9565b9250506060611669878288016115f9565b91505092959194509250565b60007fffffffff0000000000000000000000000000000000000000000000000000000082169050919050565b6116aa81611675565b81146116b557600080fd5b50565b6000813590506116c7816116a1565b92915050565b6000602082840312156116e3576116e26115ce565b5b60006116f1848285016116b8565b91505092915050565b60008115159050919050565b61170f816116fa565b82525050565b600060208201905061172a6000830184611706565b92915050565b600081519050919050565b600082825260208201905092915050565b60005b8381101561176a57808201518184015260208101905061174f565b83811115611779576000848401525b50505050565b6000601f19601f8301169050919050565b600061179b82611730565b6117a5818561173b565b93506117b581856020860161174c565b6117be8161177f565b840191505092915050565b600060208201905081810360008301526117e38184611790565b905092915050565b600060208284031215611801576118006115ce565b5b600061180f848285016115f9565b91505092915050565b600073ffffffffffffffffffffffffffffffffffffffff82169050919050565b600061184382611818565b9050919050565b61185381611838565b82525050565b600060208201905061186e600083018461184a565b92915050565b61187d81611838565b811461188857600080fd5b50565b60008135905061189a81611874565b92915050565b600080604083850312156118b7576118b66115ce565b5b60006118c58582860161188b565b92505060206118d6858286016115f9565b9150509250929050565b6000806000606084860312156118f9576118f86115ce565b5b60006119078682870161188b565b93505060206119188682870161188b565b9250506040611929868287016115f9565b9150509250925092565b600060208284031215611949576119486115ce565b5b60006119578482850161188b565b91505092915050565b611969816115d8565b82525050565b60006020820190506119846000830184611960565b92915050565b611993816116fa565b811461199e57600080fd5b50565b6000813590506119b08161198a565b92915050565b600080604083850312156119cd576119cc6115ce565b5b60006119db8582860161188b565b92505060206119ec858286016119a1565b9150509250929050565b600080600080600060a08688031215611a1257611a116115ce565b5b6000611a20888289016115f9565b9550506020611a31888289016115f9565b9450506040611a42888289016115f9565b9350506060611a53888289016115f9565b9250506080611a648882890161188b565b9150509295509295909350565b600080600060608486031215611a8a57611a896115ce565b5b6000611a98868287016115f9565b9350506020611aa9868287016115f9565b9250506040611aba868287016115f9565b9150509250925092565b6000604082019050611ad9600083018561184a565b611ae66020830184611960565b9392505050565b600080fd5b600080fd5b7f4e487b7100000000000000000000000000000000000000000000000000000000600052604160045260246000fd5b611b2f8261177f565b810181811067ffffffffffffffff82111715611b4e57611b4d611af7565b5b80604052505050565b6000611b616115c4565b9050611b6d8282611b26565b919050565b600067ffffffffffffffff821115611b8d57611b8c611af7565b5b611b968261177f565b9050602081019050919050565b82818337600083830152505050565b6000611bc5611bc084611b72565b611b57565b905082815260208101848484011115611be157611be0611af2565b5b611bec848285611ba3565b509392505050565b600082601f830112611c0957611c08611aed565b5b8135611c19848260208601611bb2565b91505092915050565b60008060008060808587031215611c3c57611c3b6115ce565b5b6000611c4a8782880161188b565b9450506020611c5b8782880161188b565b9350506040611c6c878288016115f9565b925050606085013567ffffffffffffffff811115611c8d57611c8c6115d3565b5b611c9987828801611bf4565b91505092959194509250565b60008060408385031215611cbc57611cbb6115ce565b5b6000611cca8582860161188b565b9250506020611cdb8582860161188b565b9150509250929050565b600060a082019050611cfa6000830188611960565b611d076020830187611960565b611d146040830186611960565b611d216060830185611960565b611d2e608083018461184a565b9695505050505050565b7f4e487b7100000000000000000000000000000000000000000000000000000000600052602260045260246000fd5b60006002820490506001821680611d7f57607f821691505b60208210811415611d9357611d92611d38565b5b50919050565b7f4552433732313a20617070726f76616c20746f2063757272656e74206f776e6560008201527f7200000000000000000000000000000000000000000000000000000000000000602082015250565b6000611df560218361173b565b9150611e0082611d99565b604082019050919050565b60006020820190508181036000830152611e2481611de8565b9050919050565b7f4552433732313a20617070726f76652063616c6c6572206973206e6f7420746f60008201527f6b656e206f776e6572206e6f7220617070726f76656420666f7220616c6c0000602082015250565b6000611e87603e8361173b565b9150611e9282611e2b565b604082019050919050565b60006020820190508181036000830152611eb681611e7a565b9050919050565b7f4552433732313a2063616c6c6572206973206e6f7420746f6b656e206f776e6560008201527f72206e6f7220617070726f766564000000000000000000000000000000000000602082015250565b6000611f19602e8361173b565b9150611f2482611ebd565b604082019050919050565b60006020820190508181036000830152611f4881611f0c565b9050919050565b7f4552433732313a20696e76616c696420746f6b656e2049440000000000000000600082015250565b6000611f8560188361173b565b9150611f9082611f4f565b602082019050919050565b60006020820190508181036000830152611fb481611f78565b9050919050565b7f4552433732313a2061646472657373207a65726f206973206e6f74206120766160008201527f6c6964206f776e65720000000000000000000000000000000000000000000000602082015250565b600061201760298361173b565b915061202282611fbb565b604082019050919050565b600060208201905081810360008301526120468161200a565b9050919050565b60006080820190506120626000830187611960565b61206f6020830186611960565b61207c6040830185611960565b612089606083018461184a565b95945050505050565b600081905092915050565b60006120a882611730565b6120b28185612092565b93506120c281856020860161174c565b80840191505092915050565b60006120da828561209d565b91506120e6828461209d565b91508190509392505050565b7f4552433732313a207472616e736665722066726f6d20696e636f72726563742060008201527f6f776e6572000000000000000000000000000000000000000000000000000000602082015250565b600061214e60258361173b565b9150612159826120f2565b604082019050919050565b6000602082019050818103600083015261217d81612141565b9050919050565b7f4552433732313a207472616e7366657220746f20746865207a65726f2061646460008201527f7265737300000000000000000000000000000000000000000000000000000000602082015250565b60006121e060248361173b565b91506121eb82612184565b604082019050919050565b6000602082019050818103600083015261220f816121d3565b9050919050565b7f4e487b7100000000000000000000000000000000000000000000000000000000600052601160045260246000fd5b6000612250826115d8565b915061225b836115d8565b92508282101561226e5761226d612216565b5b828203905092915050565b6000612284826115d8565b915061228f836115d8565b9250827fffffffffffffffffffffffffffffffffffffffffffffffffffffffffffffffff038211156122c4576122c3612216565b5b828201905092915050565b7f4552433732313a20617070726f766520746f2063616c6c657200000000000000600082015250565b600061230560198361173b565b9150612310826122cf565b602082019050919050565b60006020820190508181036000830152612334816122f8565b9050919050565b7f4552433732313a207472616e7366657220746f206e6f6e20455243373231526560008201527f63656976657220696d706c656d656e7465720000000000000000000000000000602082015250565b600061239760328361173b565b91506123a28261233b565b604082019050919050565b600060208201905081810360008301526123c68161238a565b9050919050565b60006123d8826115d8565b91507fffffffffffffffffffffffffffffffffffffffffffffffffffffffffffffffff82141561240b5761240a612216565b5b600182019050919050565b7f4e487b7100000000000000000000000000000000000000000000000000000000600052601260045260246000fd5b6000612450826115d8565b915061245b836115d8565b92508261246b5761246a612416565b5b828204905092915050565b6000612481826115d8565b915061248c836115d8565b92508261249c5761249b612416565b5b828206905092915050565b7f4e487b7100000000000000000000000000000000000000000000000000000000600052603260045260246000fd5b600081519050919050565b600082825260208201905092915050565b60006124fd826124d6565b61250781856124e1565b935061251781856020860161174c565b6125208161177f565b840191505092915050565b6000608082019050612540600083018761184a565b61254d602083018661184a565b61255a6040830185611960565b818103606083015261256c81846124f2565b905095945050505050565b600081519050612586816116a1565b92915050565b6000602082840312156125a2576125a16115ce565b5b60006125b084828501612577565b9150509291505056fea2646970667358221220f122f4850e36e122aaf222e02f8eb89230272f71a6a7c65477cda8d122106e4b64736f6c634300080b0033",
  "immutableReferences": {},
  "source": "// SPDX-License-Identifier: MIT\npragma solidity >=0.4.22 <0.9.0;\nimport \"@openzeppelin/contracts/token/ERC721/ERC721.sol\";\n\ncontract Light is ERC721 {\n  constructor() ERC721(\"Light\", \"LT\") {\n  }\n\n  // Mapping\n  struct LightInfo { \n    address owner;\n    uint color;\n  }\n  mapping(uint => mapping(uint => mapping(uint => LightInfo))) public light;\n  \n  // Colors\n  event UpdatedColor(uint x, uint y, uint z,uint color, address updater);\n  function setColor(uint _x, uint _y, uint _z,uint _color) public {\n    light[_x][_y][_z].color = _color;\n    emit UpdatedColor(_x, _y, _z, _color, msg.sender);\n  }\n\n  // Minting\n  event Minted(uint x, uint y, uint z, address minter);\n  function mint(uint _x, uint _y, uint _z, uint _color, address _owner) public {\n    light[_x][_y][_z] = LightInfo(_owner, _color);\n    emit Minted(_x, _y, _z, _owner);\n  }\n\n}\n",
  "sourcePath": "/Users/joshuamartin/22/lights/evm/contracts/Light.sol",
  "compiler": {
    "name": "solc",
    "version": "0.8.11+commit.d7f03943.Emscripten.clang"
  },
  "schemaVersion": "3.4.4",
  "updatedAt": "2022-07-15T17:12:42.393Z",
  "devdoc": {
    "kind": "dev",
    "methods": {
      "approve(address,uint256)": {
        "details": "See {IERC721-approve}."
      },
      "balanceOf(address)": {
        "details": "See {IERC721-balanceOf}."
      },
      "getApproved(uint256)": {
        "details": "See {IERC721-getApproved}."
      },
      "isApprovedForAll(address,address)": {
        "details": "See {IERC721-isApprovedForAll}."
      },
      "name()": {
        "details": "See {IERC721Metadata-name}."
      },
      "ownerOf(uint256)": {
        "details": "See {IERC721-ownerOf}."
      },
      "safeTransferFrom(address,address,uint256)": {
        "details": "See {IERC721-safeTransferFrom}."
      },
      "safeTransferFrom(address,address,uint256,bytes)": {
        "details": "See {IERC721-safeTransferFrom}."
      },
      "setApprovalForAll(address,bool)": {
        "details": "See {IERC721-setApprovalForAll}."
      },
      "supportsInterface(bytes4)": {
        "details": "See {IERC165-supportsInterface}."
      },
      "symbol()": {
        "details": "See {IERC721Metadata-symbol}."
      },
      "tokenURI(uint256)": {
        "details": "See {IERC721Metadata-tokenURI}."
      },
      "transferFrom(address,address,uint256)": {
        "details": "See {IERC721-transferFrom}."
      }
    },
    "version": 1
  },
  "userdoc": {
    "kind": "user",
    "methods": {},
    "version": 1
  }
}